{
	"constracts/task1/Voting.sol": {
		"Voting": {
			"abi": [
				{
					"inputs": [
						{
							"internalType": "uint256",
							"name": "",
							"type": "uint256"
						}
					],
					"name": "addrList",
					"outputs": [
						{
							"internalType": "address",
							"name": "",
							"type": "address"
						}
					],
					"stateMutability": "view",
					"type": "function"
				},
				{
					"inputs": [
						{
							"internalType": "uint256",
							"name": "",
							"type": "uint256"
						}
					],
					"name": "addrList1",
					"outputs": [
						{
							"internalType": "address",
							"name": "",
							"type": "address"
						}
					],
					"stateMutability": "view",
					"type": "function"
				},
				{
					"inputs": [],
					"name": "arrConSort",
					"outputs": [
						{
							"internalType": "uint256[]",
							"name": "",
							"type": "uint256[]"
						}
					],
					"stateMutability": "pure",
					"type": "function"
				},
				{
					"inputs": [
						{
							"internalType": "uint256",
							"name": "target",
							"type": "uint256"
						}
					],
					"name": "getValue",
					"outputs": [
						{
							"internalType": "uint256",
							"name": "",
							"type": "uint256"
						}
					],
					"stateMutability": "pure",
					"type": "function"
				},
				{
					"inputs": [
						{
							"internalType": "address",
							"name": "addr",
							"type": "address"
						}
					],
					"name": "getVotes",
					"outputs": [
						{
							"internalType": "uint256",
							"name": "",
							"type": "uint256"
						}
					],
					"stateMutability": "view",
					"type": "function"
				},
				{
					"inputs": [],
					"name": "resetVotes",
					"outputs": [],
					"stateMutability": "nonpayable",
					"type": "function"
				},
				{
					"inputs": [
						{
							"internalType": "address",
							"name": "addr",
							"type": "address"
						}
					],
					"name": "vote",
					"outputs": [],
					"stateMutability": "nonpayable",
					"type": "function"
				},
				{
					"inputs": [
						{
							"internalType": "address",
							"name": "",
							"type": "address"
						}
					],
					"name": "votes",
					"outputs": [
						{
							"internalType": "uint256",
							"name": "",
							"type": "uint256"
						}
					],
					"stateMutability": "view",
					"type": "function"
				}
			],
			"devdoc": {
				"kind": "dev",
				"methods": {},
				"version": 1
			},
			"evm": {
				"assembly": "    /* \"constracts/task1/Voting.sol\":74:3009  contract Voting {... */\n  mstore(0x40, 0x80)\n  callvalue\n  dup1\n  iszero\n  tag_1\n  jumpi\n  revert(0x00, 0x00)\ntag_1:\n  pop\n  dataSize(sub_0)\n  dup1\n  dataOffset(sub_0)\n  0x00\n  codecopy\n  0x00\n  return\nstop\n\nsub_0: assembly {\n        /* \"constracts/task1/Voting.sol\":74:3009  contract Voting {... */\n      mstore(0x40, 0x80)\n      callvalue\n      dup1\n      iszero\n      tag_1\n      jumpi\n      revert(0x00, 0x00)\n    tag_1:\n      pop\n      jumpi(tag_2, lt(calldatasize, 0x04))\n      shr(0xe0, calldataload(0x00))\n      dup1\n      0x80402564\n      gt\n      tag_11\n      jumpi\n      dup1\n      0x80402564\n      eq\n      tag_7\n      jumpi\n      dup1\n      0x9ab24eb0\n      eq\n      tag_8\n      jumpi\n      dup1\n      0xb9830ff1\n      eq\n      tag_9\n      jumpi\n      dup1\n      0xd8bff5a5\n      eq\n      tag_10\n      jumpi\n      jump(tag_2)\n    tag_11:\n      dup1\n      0x0ff4c916\n      eq\n      tag_3\n      jumpi\n      dup1\n      0x15cb9ff7\n      eq\n      tag_4\n      jumpi\n      dup1\n      0x2e9eb7c6\n      eq\n      tag_5\n      jumpi\n      dup1\n      0x6dd7d8ea\n      eq\n      tag_6\n      jumpi\n    tag_2:\n      revert(0x00, 0x00)\n        /* \"constracts/task1/Voting.sol\":2264:3000  function getValue(uint target) public pure  returns(uint) {... */\n    tag_3:\n      tag_12\n      0x04\n      dup1\n      calldatasize\n      sub\n      dup2\n      add\n      swap1\n      tag_13\n      swap2\n      swap1\n      tag_14\n      jump\t// in\n    tag_13:\n      tag_15\n      jump\t// in\n    tag_12:\n      mload(0x40)\n      tag_16\n      swap2\n      swap1\n      tag_17\n      jump\t// in\n    tag_16:\n      mload(0x40)\n      dup1\n      swap2\n      sub\n      swap1\n      return\n        /* \"constracts/task1/Voting.sol\":317:343  address[] public addrList1 */\n    tag_4:\n      tag_18\n      0x04\n      dup1\n      calldatasize\n      sub\n      dup2\n      add\n      swap1\n      tag_19\n      swap2\n      swap1\n      tag_14\n      jump\t// in\n    tag_19:\n      tag_20\n      jump\t// in\n    tag_18:\n      mload(0x40)\n      tag_21\n      swap2\n      swap1\n      tag_22\n      jump\t// in\n    tag_21:\n      mload(0x40)\n      dup1\n      swap2\n      sub\n      swap1\n      return\n        /* \"constracts/task1/Voting.sol\":1191:2140  function arrConSort() public pure returns(uint[] memory){... */\n    tag_5:\n      tag_23\n      tag_24\n      jump\t// in\n    tag_23:\n      mload(0x40)\n      tag_25\n      swap2\n      swap1\n      tag_26\n      jump\t// in\n    tag_25:\n      mload(0x40)\n      dup1\n      swap2\n      sub\n      swap1\n      return\n        /* \"constracts/task1/Voting.sol\":432:582  function vote (address addr) public {... */\n    tag_6:\n      tag_27\n      0x04\n      dup1\n      calldatasize\n      sub\n      dup2\n      add\n      swap1\n      tag_28\n      swap2\n      swap1\n      tag_29\n      jump\t// in\n    tag_28:\n      tag_30\n      jump\t// in\n    tag_27:\n      stop\n        /* \"constracts/task1/Voting.sol\":268:293  address[] public addrList */\n    tag_7:\n      tag_31\n      0x04\n      dup1\n      calldatasize\n      sub\n      dup2\n      add\n      swap1\n      tag_32\n      swap2\n      swap1\n      tag_14\n      jump\t// in\n    tag_32:\n      tag_33\n      jump\t// in\n    tag_31:\n      mload(0x40)\n      tag_34\n      swap2\n      swap1\n      tag_22\n      jump\t// in\n    tag_34:\n      mload(0x40)\n      dup1\n      swap2\n      sub\n      swap1\n      return\n        /* \"constracts/task1/Voting.sol\":652:751  function  getVotes(address addr) public view returns (uint256){... */\n    tag_8:\n      tag_35\n      0x04\n      dup1\n      calldatasize\n      sub\n      dup2\n      add\n      swap1\n      tag_36\n      swap2\n      swap1\n      tag_29\n      jump\t// in\n    tag_36:\n      tag_37\n      jump\t// in\n    tag_35:\n      mload(0x40)\n      tag_38\n      swap2\n      swap1\n      tag_17\n      jump\t// in\n    tag_38:\n      mload(0x40)\n      dup1\n      swap2\n      sub\n      swap1\n      return\n        /* \"constracts/task1/Voting.sol\":826:989  function resetVotes() public  {... */\n    tag_9:\n      tag_39\n      tag_40\n      jump\t// in\n    tag_39:\n      stop\n        /* \"constracts/task1/Voting.sol\":219:259  mapping (address=>uint256) public  votes */\n    tag_10:\n      tag_41\n      0x04\n      dup1\n      calldatasize\n      sub\n      dup2\n      add\n      swap1\n      tag_42\n      swap2\n      swap1\n      tag_29\n      jump\t// in\n    tag_42:\n      tag_43\n      jump\t// in\n    tag_41:\n      mload(0x40)\n      tag_44\n      swap2\n      swap1\n      tag_17\n      jump\t// in\n    tag_44:\n      mload(0x40)\n      dup1\n      swap2\n      sub\n      swap1\n      return\n        /* \"constracts/task1/Voting.sol\":2264:3000  function getValue(uint target) public pure  returns(uint) {... */\n    tag_15:\n        /* \"constracts/task1/Voting.sol\":2316:2320  uint */\n      0x00\n        /* \"constracts/task1/Voting.sol\":2333:2354  uint256[]  memory arr */\n      0x00\n        /* \"constracts/task1/Voting.sol\":2369:2370  5 */\n      0x05\n        /* \"constracts/task1/Voting.sol\":2355:2371  new uint256[](5) */\n      0xffffffffffffffff\n      dup2\n      gt\n      iszero\n      tag_46\n      jumpi\n      tag_47\n      tag_48\n      jump\t// in\n    tag_47:\n    tag_46:\n      mload(0x40)\n      swap1\n      dup1\n      dup3\n      mstore\n      dup1\n      0x20\n      mul\n      0x20\n      add\n      dup3\n      add\n      0x40\n      mstore\n      dup1\n      iszero\n      tag_49\n      jumpi\n      dup2\n      0x20\n      add\n      0x20\n      dup3\n      mul\n      dup1\n      calldatasize\n      dup4\n      calldatacopy\n      dup1\n      dup3\n      add\n      swap2\n      pop\n      pop\n      swap1\n      pop\n    tag_49:\n      pop\n        /* \"constracts/task1/Voting.sol\":2333:2371  uint256[]  memory arr=new uint256[](5) */\n      swap1\n      pop\n        /* \"constracts/task1/Voting.sol\":2389:2390  2 */\n      0x02\n        /* \"constracts/task1/Voting.sol\":2382:2385  arr */\n      dup2\n        /* \"constracts/task1/Voting.sol\":2386:2387  0 */\n      0x00\n        /* \"constracts/task1/Voting.sol\":2382:2388  arr[0] */\n      dup2\n      mload\n      dup2\n      lt\n      tag_50\n      jumpi\n      tag_51\n      tag_52\n      jump\t// in\n    tag_51:\n    tag_50:\n      0x20\n      mul\n      0x20\n      add\n      add\n        /* \"constracts/task1/Voting.sol\":2382:2390  arr[0]=2 */\n      dup2\n      dup2\n      mstore\n      pop\n      pop\n        /* \"constracts/task1/Voting.sol\":2408:2409  3 */\n      0x03\n        /* \"constracts/task1/Voting.sol\":2401:2404  arr */\n      dup2\n        /* \"constracts/task1/Voting.sol\":2405:2406  1 */\n      0x01\n        /* \"constracts/task1/Voting.sol\":2401:2407  arr[1] */\n      dup2\n      mload\n      dup2\n      lt\n      tag_53\n      jumpi\n      tag_54\n      tag_52\n      jump\t// in\n    tag_54:\n    tag_53:\n      0x20\n      mul\n      0x20\n      add\n      add\n        /* \"constracts/task1/Voting.sol\":2401:2409  arr[1]=3 */\n      dup2\n      dup2\n      mstore\n      pop\n      pop\n        /* \"constracts/task1/Voting.sol\":2427:2428  5 */\n      0x05\n        /* \"constracts/task1/Voting.sol\":2420:2423  arr */\n      dup2\n        /* \"constracts/task1/Voting.sol\":2424:2425  2 */\n      0x02\n        /* \"constracts/task1/Voting.sol\":2420:2426  arr[2] */\n      dup2\n      mload\n      dup2\n      lt\n      tag_55\n      jumpi\n      tag_56\n      tag_52\n      jump\t// in\n    tag_56:\n    tag_55:\n      0x20\n      mul\n      0x20\n      add\n      add\n        /* \"constracts/task1/Voting.sol\":2420:2428  arr[2]=5 */\n      dup2\n      dup2\n      mstore\n      pop\n      pop\n        /* \"constracts/task1/Voting.sol\":2446:2447  7 */\n      0x07\n        /* \"constracts/task1/Voting.sol\":2439:2442  arr */\n      dup2\n        /* \"constracts/task1/Voting.sol\":2443:2444  3 */\n      0x03\n        /* \"constracts/task1/Voting.sol\":2439:2445  arr[3] */\n      dup2\n      mload\n      dup2\n      lt\n      tag_57\n      jumpi\n      tag_58\n      tag_52\n      jump\t// in\n    tag_58:\n    tag_57:\n      0x20\n      mul\n      0x20\n      add\n      add\n        /* \"constracts/task1/Voting.sol\":2439:2447  arr[3]=7 */\n      dup2\n      dup2\n      mstore\n      pop\n      pop\n        /* \"constracts/task1/Voting.sol\":2465:2466  9 */\n      0x09\n        /* \"constracts/task1/Voting.sol\":2458:2461  arr */\n      dup2\n        /* \"constracts/task1/Voting.sol\":2462:2463  4 */\n      0x04\n        /* \"constracts/task1/Voting.sol\":2458:2464  arr[4] */\n      dup2\n      mload\n      dup2\n      lt\n      tag_59\n      jumpi\n      tag_60\n      tag_52\n      jump\t// in\n    tag_60:\n    tag_59:\n      0x20\n      mul\n      0x20\n      add\n      add\n        /* \"constracts/task1/Voting.sol\":2458:2466  arr[4]=9 */\n      dup2\n      dup2\n      mstore\n      pop\n      pop\n        /* \"constracts/task1/Voting.sol\":2479:2488  uint left */\n      0x00\n        /* \"constracts/task1/Voting.sol\":2491:2492  0 */\n      0x00\n        /* \"constracts/task1/Voting.sol\":2479:2492  uint left = 0 */\n      swap1\n      pop\n        /* \"constracts/task1/Voting.sol\":2503:2513  uint right */\n      0x00\n        /* \"constracts/task1/Voting.sol\":2530:2531  1 */\n      0x01\n        /* \"constracts/task1/Voting.sol\":2516:2519  arr */\n      dup4\n        /* \"constracts/task1/Voting.sol\":2516:2526  arr.length */\n      mload\n        /* \"constracts/task1/Voting.sol\":2516:2531  arr.length  - 1 */\n      tag_61\n      swap2\n      swap1\n      tag_62\n      jump\t// in\n    tag_61:\n        /* \"constracts/task1/Voting.sol\":2503:2531  uint right = arr.length  - 1 */\n      swap1\n      pop\n        /* \"constracts/task1/Voting.sol\":2545:2944  while (left <= right) {... */\n    tag_63:\n        /* \"constracts/task1/Voting.sol\":2560:2565  right */\n      dup1\n        /* \"constracts/task1/Voting.sol\":2552:2556  left */\n      dup3\n        /* \"constracts/task1/Voting.sol\":2552:2565  left <= right */\n      gt\n        /* \"constracts/task1/Voting.sol\":2545:2944  while (left <= right) {... */\n      tag_64\n      jumpi\n        /* \"constracts/task1/Voting.sol\":2582:2590  uint mid */\n      0x00\n        /* \"constracts/task1/Voting.sol\":2617:2618  2 */\n      0x02\n        /* \"constracts/task1/Voting.sol\":2609:2613  left */\n      dup4\n        /* \"constracts/task1/Voting.sol\":2601:2606  right */\n      dup4\n        /* \"constracts/task1/Voting.sol\":2601:2613  right - left */\n      tag_65\n      swap2\n      swap1\n      tag_62\n      jump\t// in\n    tag_65:\n        /* \"constracts/task1/Voting.sol\":2600:2618  (right - left) / 2 */\n      tag_66\n      swap2\n      swap1\n      tag_67\n      jump\t// in\n    tag_66:\n        /* \"constracts/task1/Voting.sol\":2593:2597  left */\n      dup4\n        /* \"constracts/task1/Voting.sol\":2593:2618  left + (right - left) / 2 */\n      tag_68\n      swap2\n      swap1\n      tag_69\n      jump\t// in\n    tag_68:\n        /* \"constracts/task1/Voting.sol\":2582:2618  uint mid = left + (right - left) / 2 */\n      swap1\n      pop\n        /* \"constracts/task1/Voting.sol\":2669:2675  target */\n      dup6\n        /* \"constracts/task1/Voting.sol\":2657:2660  arr */\n      dup5\n        /* \"constracts/task1/Voting.sol\":2661:2664  mid */\n      dup3\n        /* \"constracts/task1/Voting.sol\":2657:2665  arr[mid] */\n      dup2\n      mload\n      dup2\n      lt\n      tag_70\n      jumpi\n      tag_71\n      tag_52\n      jump\t// in\n    tag_71:\n    tag_70:\n      0x20\n      mul\n      0x20\n      add\n      add\n      mload\n        /* \"constracts/task1/Voting.sol\":2657:2675  arr[mid] == target */\n      sub\n        /* \"constracts/task1/Voting.sol\":2653:2933  if (arr[mid] == target) {... */\n      tag_72\n      jumpi\n        /* \"constracts/task1/Voting.sol\":2703:2706  mid */\n      dup1\n        /* \"constracts/task1/Voting.sol\":2696:2706  return mid */\n      swap5\n      pop\n      pop\n      pop\n      pop\n      pop\n      jump(tag_45)\n        /* \"constracts/task1/Voting.sol\":2653:2933  if (arr[mid] == target) {... */\n    tag_72:\n        /* \"constracts/task1/Voting.sol\":2762:2768  target */\n      dup6\n        /* \"constracts/task1/Voting.sol\":2751:2754  arr */\n      dup5\n        /* \"constracts/task1/Voting.sol\":2755:2758  mid */\n      dup3\n        /* \"constracts/task1/Voting.sol\":2751:2759  arr[mid] */\n      dup2\n      mload\n      dup2\n      lt\n      tag_74\n      jumpi\n      tag_75\n      tag_52\n      jump\t// in\n    tag_75:\n    tag_74:\n      0x20\n      mul\n      0x20\n      add\n      add\n      mload\n        /* \"constracts/task1/Voting.sol\":2751:2768  arr[mid] < target */\n      lt\n        /* \"constracts/task1/Voting.sol\":2747:2933  if (arr[mid] < target) {... */\n      iszero\n      tag_76\n      jumpi\n        /* \"constracts/task1/Voting.sol\":2802:2803  1 */\n      0x01\n        /* \"constracts/task1/Voting.sol\":2796:2799  mid */\n      dup2\n        /* \"constracts/task1/Voting.sol\":2796:2803  mid + 1 */\n      tag_77\n      swap2\n      swap1\n      tag_69\n      jump\t// in\n    tag_77:\n        /* \"constracts/task1/Voting.sol\":2789:2803  left = mid + 1 */\n      swap3\n      pop\n        /* \"constracts/task1/Voting.sol\":2747:2933  if (arr[mid] < target) {... */\n      jump(tag_78)\n    tag_76:\n        /* \"constracts/task1/Voting.sol\":2887:2888  1 */\n      0x01\n        /* \"constracts/task1/Voting.sol\":2881:2884  mid */\n      dup2\n        /* \"constracts/task1/Voting.sol\":2881:2888  mid - 1 */\n      tag_79\n      swap2\n      swap1\n      tag_62\n      jump\t// in\n    tag_79:\n        /* \"constracts/task1/Voting.sol\":2873:2888  right = mid - 1 */\n      swap2\n      pop\n        /* \"constracts/task1/Voting.sol\":2747:2933  if (arr[mid] < target) {... */\n    tag_78:\n        /* \"constracts/task1/Voting.sol\":2567:2944  {... */\n      pop\n        /* \"constracts/task1/Voting.sol\":2545:2944  while (left <= right) {... */\n      jump(tag_63)\n    tag_64:\n        /* \"constracts/task1/Voting.sol\":2962:2976  type(uint).max */\n      0xffffffffffffffffffffffffffffffffffffffffffffffffffffffffffffffff\n        /* \"constracts/task1/Voting.sol\":2954:2976  return  type(uint).max */\n      swap4\n      pop\n      pop\n      pop\n      pop\n        /* \"constracts/task1/Voting.sol\":2264:3000  function getValue(uint target) public pure  returns(uint) {... */\n    tag_45:\n      swap2\n      swap1\n      pop\n      jump\t// out\n        /* \"constracts/task1/Voting.sol\":317:343  address[] public addrList1 */\n    tag_20:\n      0x02\n      dup2\n      dup2\n      sload\n      dup2\n      lt\n      tag_80\n      jumpi\n      0x00\n      dup1\n      revert\n    tag_80:\n      swap1\n      0x00\n      mstore\n      keccak256(0x00, 0x20)\n      add\n      0x00\n      swap2\n      pop\n      sload\n      swap1\n      0x0100\n      exp\n      swap1\n      div\n      0xffffffffffffffffffffffffffffffffffffffff\n      and\n      dup2\n      jump\t// out\n        /* \"constracts/task1/Voting.sol\":1191:2140  function arrConSort() public pure returns(uint[] memory){... */\n    tag_24:\n        /* \"constracts/task1/Voting.sol\":1233:1246  uint[] memory */\n      0x60\n        /* \"constracts/task1/Voting.sol\":1258:1278  uint256[]  memory a1 */\n      0x00\n        /* \"constracts/task1/Voting.sol\":1293:1294  4 */\n      0x04\n        /* \"constracts/task1/Voting.sol\":1279:1295  new uint256[](4) */\n      0xffffffffffffffff\n      dup2\n      gt\n      iszero\n      tag_83\n      jumpi\n      tag_84\n      tag_48\n      jump\t// in\n    tag_84:\n    tag_83:\n      mload(0x40)\n      swap1\n      dup1\n      dup3\n      mstore\n      dup1\n      0x20\n      mul\n      0x20\n      add\n      dup3\n      add\n      0x40\n      mstore\n      dup1\n      iszero\n      tag_85\n      jumpi\n      dup2\n      0x20\n      add\n      0x20\n      dup3\n      mul\n      dup1\n      calldatasize\n      dup4\n      calldatacopy\n      dup1\n      dup3\n      add\n      swap2\n      pop\n      pop\n      swap1\n      pop\n    tag_85:\n      pop\n        /* \"constracts/task1/Voting.sol\":1258:1295  uint256[]  memory a1=new uint256[](4) */\n      swap1\n      pop\n        /* \"constracts/task1/Voting.sol\":1312:1313  1 */\n      0x01\n        /* \"constracts/task1/Voting.sol\":1306:1308  a1 */\n      dup2\n        /* \"constracts/task1/Voting.sol\":1309:1310  0 */\n      0x00\n        /* \"constracts/task1/Voting.sol\":1306:1311  a1[0] */\n      dup2\n      mload\n      dup2\n      lt\n      tag_86\n      jumpi\n      tag_87\n      tag_52\n      jump\t// in\n    tag_87:\n    tag_86:\n      0x20\n      mul\n      0x20\n      add\n      add\n        /* \"constracts/task1/Voting.sol\":1306:1313  a1[0]=1 */\n      dup2\n      dup2\n      mstore\n      pop\n      pop\n        /* \"constracts/task1/Voting.sol\":1330:1331  4 */\n      0x04\n        /* \"constracts/task1/Voting.sol\":1324:1326  a1 */\n      dup2\n        /* \"constracts/task1/Voting.sol\":1327:1328  1 */\n      0x01\n        /* \"constracts/task1/Voting.sol\":1324:1329  a1[1] */\n      dup2\n      mload\n      dup2\n      lt\n      tag_88\n      jumpi\n      tag_89\n      tag_52\n      jump\t// in\n    tag_89:\n    tag_88:\n      0x20\n      mul\n      0x20\n      add\n      add\n        /* \"constracts/task1/Voting.sol\":1324:1331  a1[1]=4 */\n      dup2\n      dup2\n      mstore\n      pop\n      pop\n        /* \"constracts/task1/Voting.sol\":1348:1349  5 */\n      0x05\n        /* \"constracts/task1/Voting.sol\":1342:1344  a1 */\n      dup2\n        /* \"constracts/task1/Voting.sol\":1345:1346  2 */\n      0x02\n        /* \"constracts/task1/Voting.sol\":1342:1347  a1[2] */\n      dup2\n      mload\n      dup2\n      lt\n      tag_90\n      jumpi\n      tag_91\n      tag_52\n      jump\t// in\n    tag_91:\n    tag_90:\n      0x20\n      mul\n      0x20\n      add\n      add\n        /* \"constracts/task1/Voting.sol\":1342:1349  a1[2]=5 */\n      dup2\n      dup2\n      mstore\n      pop\n      pop\n        /* \"constracts/task1/Voting.sol\":1366:1367  8 */\n      0x08\n        /* \"constracts/task1/Voting.sol\":1360:1362  a1 */\n      dup2\n        /* \"constracts/task1/Voting.sol\":1363:1364  3 */\n      0x03\n        /* \"constracts/task1/Voting.sol\":1360:1365  a1[3] */\n      dup2\n      mload\n      dup2\n      lt\n      tag_92\n      jumpi\n      tag_93\n      tag_52\n      jump\t// in\n    tag_93:\n    tag_92:\n      0x20\n      mul\n      0x20\n      add\n      add\n        /* \"constracts/task1/Voting.sol\":1360:1367  a1[3]=8 */\n      dup2\n      dup2\n      mstore\n      pop\n      pop\n        /* \"constracts/task1/Voting.sol\":1388:1408  uint256[]  memory a2 */\n      0x00\n        /* \"constracts/task1/Voting.sol\":1423:1424  4 */\n      0x04\n        /* \"constracts/task1/Voting.sol\":1409:1425  new uint256[](4) */\n      0xffffffffffffffff\n      dup2\n      gt\n      iszero\n      tag_94\n      jumpi\n      tag_95\n      tag_48\n      jump\t// in\n    tag_95:\n    tag_94:\n      mload(0x40)\n      swap1\n      dup1\n      dup3\n      mstore\n      dup1\n      0x20\n      mul\n      0x20\n      add\n      dup3\n      add\n      0x40\n      mstore\n      dup1\n      iszero\n      tag_96\n      jumpi\n      dup2\n      0x20\n      add\n      0x20\n      dup3\n      mul\n      dup1\n      calldatasize\n      dup4\n      calldatacopy\n      dup1\n      dup3\n      add\n      swap2\n      pop\n      pop\n      swap1\n      pop\n    tag_96:\n      pop\n        /* \"constracts/task1/Voting.sol\":1388:1425  uint256[]  memory a2=new uint256[](4) */\n      swap1\n      pop\n        /* \"constracts/task1/Voting.sol\":1442:1443  2 */\n      0x02\n        /* \"constracts/task1/Voting.sol\":1436:1438  a2 */\n      dup2\n        /* \"constracts/task1/Voting.sol\":1439:1440  0 */\n      0x00\n        /* \"constracts/task1/Voting.sol\":1436:1441  a2[0] */\n      dup2\n      mload\n      dup2\n      lt\n      tag_97\n      jumpi\n      tag_98\n      tag_52\n      jump\t// in\n    tag_98:\n    tag_97:\n      0x20\n      mul\n      0x20\n      add\n      add\n        /* \"constracts/task1/Voting.sol\":1436:1443  a2[0]=2 */\n      dup2\n      dup2\n      mstore\n      pop\n      pop\n        /* \"constracts/task1/Voting.sol\":1460:1461  3 */\n      0x03\n        /* \"constracts/task1/Voting.sol\":1454:1456  a2 */\n      dup2\n        /* \"constracts/task1/Voting.sol\":1457:1458  1 */\n      0x01\n        /* \"constracts/task1/Voting.sol\":1454:1459  a2[1] */\n      dup2\n      mload\n      dup2\n      lt\n      tag_99\n      jumpi\n      tag_100\n      tag_52\n      jump\t// in\n    tag_100:\n    tag_99:\n      0x20\n      mul\n      0x20\n      add\n      add\n        /* \"constracts/task1/Voting.sol\":1454:1461  a2[1]=3 */\n      dup2\n      dup2\n      mstore\n      pop\n      pop\n        /* \"constracts/task1/Voting.sol\":1478:1479  7 */\n      0x07\n        /* \"constracts/task1/Voting.sol\":1472:1474  a2 */\n      dup2\n        /* \"constracts/task1/Voting.sol\":1475:1476  2 */\n      0x02\n        /* \"constracts/task1/Voting.sol\":1472:1477  a2[2] */\n      dup2\n      mload\n      dup2\n      lt\n      tag_101\n      jumpi\n      tag_102\n      tag_52\n      jump\t// in\n    tag_102:\n    tag_101:\n      0x20\n      mul\n      0x20\n      add\n      add\n        /* \"constracts/task1/Voting.sol\":1472:1479  a2[2]=7 */\n      dup2\n      dup2\n      mstore\n      pop\n      pop\n        /* \"constracts/task1/Voting.sol\":1496:1497  9 */\n      0x09\n        /* \"constracts/task1/Voting.sol\":1490:1492  a2 */\n      dup2\n        /* \"constracts/task1/Voting.sol\":1493:1494  3 */\n      0x03\n        /* \"constracts/task1/Voting.sol\":1490:1495  a2[3] */\n      dup2\n      mload\n      dup2\n      lt\n      tag_103\n      jumpi\n      tag_104\n      tag_52\n      jump\t// in\n    tag_104:\n    tag_103:\n      0x20\n      mul\n      0x20\n      add\n      add\n        /* \"constracts/task1/Voting.sol\":1490:1497  a2[3]=9 */\n      dup2\n      dup2\n      mstore\n      pop\n      pop\n        /* \"constracts/task1/Voting.sol\":1518:1535  uint[] memory all */\n      0x00\n        /* \"constracts/task1/Voting.sol\":1558:1560  a2 */\n      dup2\n        /* \"constracts/task1/Voting.sol\":1558:1567  a2.length */\n      mload\n        /* \"constracts/task1/Voting.sol\":1548:1550  a1 */\n      dup4\n        /* \"constracts/task1/Voting.sol\":1548:1557  a1.length */\n      mload\n        /* \"constracts/task1/Voting.sol\":1548:1567  a1.length+a2.length */\n      tag_105\n      swap2\n      swap1\n      tag_69\n      jump\t// in\n    tag_105:\n        /* \"constracts/task1/Voting.sol\":1537:1568  new uint[](a1.length+a2.length) */\n      0xffffffffffffffff\n      dup2\n      gt\n      iszero\n      tag_106\n      jumpi\n      tag_107\n      tag_48\n      jump\t// in\n    tag_107:\n    tag_106:\n      mload(0x40)\n      swap1\n      dup1\n      dup3\n      mstore\n      dup1\n      0x20\n      mul\n      0x20\n      add\n      dup3\n      add\n      0x40\n      mstore\n      dup1\n      iszero\n      tag_108\n      jumpi\n      dup2\n      0x20\n      add\n      0x20\n      dup3\n      mul\n      dup1\n      calldatasize\n      dup4\n      calldatacopy\n      dup1\n      dup3\n      add\n      swap2\n      pop\n      pop\n      swap1\n      pop\n    tag_108:\n      pop\n        /* \"constracts/task1/Voting.sol\":1518:1568  uint[] memory all =new uint[](a1.length+a2.length) */\n      swap1\n      pop\n        /* \"constracts/task1/Voting.sol\":1579:1585  uint k */\n      0x00\n        /* \"constracts/task1/Voting.sol\":1586:1587  0 */\n      0x00\n        /* \"constracts/task1/Voting.sol\":1579:1587  uint k=0 */\n      swap1\n      pop\n        /* \"constracts/task1/Voting.sol\":1598:1604  uint i */\n      0x00\n        /* \"constracts/task1/Voting.sol\":1605:1606  0 */\n      0x00\n        /* \"constracts/task1/Voting.sol\":1598:1606  uint i=0 */\n      swap1\n      pop\n        /* \"constracts/task1/Voting.sol\":1617:1623  uint j */\n      0x00\n        /* \"constracts/task1/Voting.sol\":1624:1625  0 */\n      0x00\n        /* \"constracts/task1/Voting.sol\":1617:1625  uint j=0 */\n      swap1\n      pop\n        /* \"constracts/task1/Voting.sol\":1636:1896  while(i<a1.length && j<a2.length){... */\n    tag_109:\n        /* \"constracts/task1/Voting.sol\":1644:1646  a1 */\n      dup6\n        /* \"constracts/task1/Voting.sol\":1644:1653  a1.length */\n      mload\n        /* \"constracts/task1/Voting.sol\":1642:1643  i */\n      dup3\n        /* \"constracts/task1/Voting.sol\":1642:1653  i<a1.length */\n      lt\n        /* \"constracts/task1/Voting.sol\":1642:1668  i<a1.length && j<a2.length */\n      dup1\n      iszero\n      tag_111\n      jumpi\n      pop\n        /* \"constracts/task1/Voting.sol\":1659:1661  a2 */\n      dup5\n        /* \"constracts/task1/Voting.sol\":1659:1668  a2.length */\n      mload\n        /* \"constracts/task1/Voting.sol\":1657:1658  j */\n      dup2\n        /* \"constracts/task1/Voting.sol\":1657:1668  j<a2.length */\n      lt\n        /* \"constracts/task1/Voting.sol\":1642:1668  i<a1.length && j<a2.length */\n    tag_111:\n        /* \"constracts/task1/Voting.sol\":1636:1896  while(i<a1.length && j<a2.length){... */\n      iszero\n      tag_110\n      jumpi\n        /* \"constracts/task1/Voting.sol\":1693:1695  a2 */\n      dup5\n        /* \"constracts/task1/Voting.sol\":1696:1697  j */\n      dup2\n        /* \"constracts/task1/Voting.sol\":1693:1698  a2[j] */\n      dup2\n      mload\n      dup2\n      lt\n      tag_112\n      jumpi\n      tag_113\n      tag_52\n      jump\t// in\n    tag_113:\n    tag_112:\n      0x20\n      mul\n      0x20\n      add\n      add\n      mload\n        /* \"constracts/task1/Voting.sol\":1687:1689  a1 */\n      dup7\n        /* \"constracts/task1/Voting.sol\":1690:1691  i */\n      dup4\n        /* \"constracts/task1/Voting.sol\":1687:1692  a1[i] */\n      dup2\n      mload\n      dup2\n      lt\n      tag_114\n      jumpi\n      tag_115\n      tag_52\n      jump\t// in\n    tag_115:\n    tag_114:\n      0x20\n      mul\n      0x20\n      add\n      add\n      mload\n        /* \"constracts/task1/Voting.sol\":1687:1698  a1[i]<a2[j] */\n      lt\n        /* \"constracts/task1/Voting.sol\":1684:1885  if(a1[i]<a2[j]){... */\n      iszero\n      tag_116\n      jumpi\n        /* \"constracts/task1/Voting.sol\":1725:1727  a1 */\n      dup6\n        /* \"constracts/task1/Voting.sol\":1728:1729  i */\n      dup3\n        /* \"constracts/task1/Voting.sol\":1725:1730  a1[i] */\n      dup2\n      mload\n      dup2\n      lt\n      tag_117\n      jumpi\n      tag_118\n      tag_52\n      jump\t// in\n    tag_118:\n    tag_117:\n      0x20\n      mul\n      0x20\n      add\n      add\n      mload\n        /* \"constracts/task1/Voting.sol\":1718:1721  all */\n      dup5\n        /* \"constracts/task1/Voting.sol\":1722:1723  k */\n      dup5\n        /* \"constracts/task1/Voting.sol\":1718:1724  all[k] */\n      dup2\n      mload\n      dup2\n      lt\n      tag_119\n      jumpi\n      tag_120\n      tag_52\n      jump\t// in\n    tag_120:\n    tag_119:\n      0x20\n      mul\n      0x20\n      add\n      add\n        /* \"constracts/task1/Voting.sol\":1718:1730  all[k]=a1[i] */\n      dup2\n      dup2\n      mstore\n      pop\n      pop\n        /* \"constracts/task1/Voting.sol\":1749:1752  i++ */\n      dup2\n      dup1\n      tag_121\n      swap1\n      tag_122\n      jump\t// in\n    tag_121:\n      swap3\n      pop\n      pop\n        /* \"constracts/task1/Voting.sol\":1771:1774  k++ */\n      dup3\n      dup1\n      tag_123\n      swap1\n      tag_122\n      jump\t// in\n    tag_123:\n      swap4\n      pop\n      pop\n        /* \"constracts/task1/Voting.sol\":1684:1885  if(a1[i]<a2[j]){... */\n      jump(tag_124)\n    tag_116:\n        /* \"constracts/task1/Voting.sol\":1820:1822  a2 */\n      dup5\n        /* \"constracts/task1/Voting.sol\":1823:1824  j */\n      dup2\n        /* \"constracts/task1/Voting.sol\":1820:1825  a2[j] */\n      dup2\n      mload\n      dup2\n      lt\n      tag_125\n      jumpi\n      tag_126\n      tag_52\n      jump\t// in\n    tag_126:\n    tag_125:\n      0x20\n      mul\n      0x20\n      add\n      add\n      mload\n        /* \"constracts/task1/Voting.sol\":1813:1816  all */\n      dup5\n        /* \"constracts/task1/Voting.sol\":1817:1818  k */\n      dup5\n        /* \"constracts/task1/Voting.sol\":1813:1819  all[k] */\n      dup2\n      mload\n      dup2\n      lt\n      tag_127\n      jumpi\n      tag_128\n      tag_52\n      jump\t// in\n    tag_128:\n    tag_127:\n      0x20\n      mul\n      0x20\n      add\n      add\n        /* \"constracts/task1/Voting.sol\":1813:1825  all[k]=a2[j] */\n      dup2\n      dup2\n      mstore\n      pop\n      pop\n        /* \"constracts/task1/Voting.sol\":1844:1847  j++ */\n      dup1\n      dup1\n      tag_129\n      swap1\n      tag_122\n      jump\t// in\n    tag_129:\n      swap2\n      pop\n      pop\n        /* \"constracts/task1/Voting.sol\":1866:1869  k++ */\n      dup3\n      dup1\n      tag_130\n      swap1\n      tag_122\n      jump\t// in\n    tag_130:\n      swap4\n      pop\n      pop\n        /* \"constracts/task1/Voting.sol\":1684:1885  if(a1[i]<a2[j]){... */\n    tag_124:\n        /* \"constracts/task1/Voting.sol\":1636:1896  while(i<a1.length && j<a2.length){... */\n      jump(tag_109)\n    tag_110:\n        /* \"constracts/task1/Voting.sol\":1908:2001  while(i<a1.length){... */\n    tag_131:\n        /* \"constracts/task1/Voting.sol\":1916:1918  a1 */\n      dup6\n        /* \"constracts/task1/Voting.sol\":1916:1925  a1.length */\n      mload\n        /* \"constracts/task1/Voting.sol\":1914:1915  i */\n      dup3\n        /* \"constracts/task1/Voting.sol\":1914:1925  i<a1.length */\n      lt\n        /* \"constracts/task1/Voting.sol\":1908:2001  while(i<a1.length){... */\n      iszero\n      tag_132\n      jumpi\n        /* \"constracts/task1/Voting.sol\":1948:1950  a1 */\n      dup6\n        /* \"constracts/task1/Voting.sol\":1951:1952  i */\n      dup3\n        /* \"constracts/task1/Voting.sol\":1948:1953  a1[i] */\n      dup2\n      mload\n      dup2\n      lt\n      tag_133\n      jumpi\n      tag_134\n      tag_52\n      jump\t// in\n    tag_134:\n    tag_133:\n      0x20\n      mul\n      0x20\n      add\n      add\n      mload\n        /* \"constracts/task1/Voting.sol\":1941:1944  all */\n      dup5\n        /* \"constracts/task1/Voting.sol\":1945:1946  k */\n      dup5\n        /* \"constracts/task1/Voting.sol\":1941:1947  all[k] */\n      dup2\n      mload\n      dup2\n      lt\n      tag_135\n      jumpi\n      tag_136\n      tag_52\n      jump\t// in\n    tag_136:\n    tag_135:\n      0x20\n      mul\n      0x20\n      add\n      add\n        /* \"constracts/task1/Voting.sol\":1941:1953  all[k]=a1[i] */\n      dup2\n      dup2\n      mstore\n      pop\n      pop\n        /* \"constracts/task1/Voting.sol\":1968:1971  i++ */\n      dup2\n      dup1\n      tag_137\n      swap1\n      tag_122\n      jump\t// in\n    tag_137:\n      swap3\n      pop\n      pop\n        /* \"constracts/task1/Voting.sol\":1986:1989  k++ */\n      dup3\n      dup1\n      tag_138\n      swap1\n      tag_122\n      jump\t// in\n    tag_138:\n      swap4\n      pop\n      pop\n        /* \"constracts/task1/Voting.sol\":1908:2001  while(i<a1.length){... */\n      jump(tag_131)\n    tag_132:\n        /* \"constracts/task1/Voting.sol\":2011:2104  while(j<a2.length){... */\n    tag_139:\n        /* \"constracts/task1/Voting.sol\":2019:2021  a2 */\n      dup5\n        /* \"constracts/task1/Voting.sol\":2019:2028  a2.length */\n      mload\n        /* \"constracts/task1/Voting.sol\":2017:2018  j */\n      dup2\n        /* \"constracts/task1/Voting.sol\":2017:2028  j<a2.length */\n      lt\n        /* \"constracts/task1/Voting.sol\":2011:2104  while(j<a2.length){... */\n      iszero\n      tag_140\n      jumpi\n        /* \"constracts/task1/Voting.sol\":2051:2053  a2 */\n      dup5\n        /* \"constracts/task1/Voting.sol\":2054:2055  j */\n      dup2\n        /* \"constracts/task1/Voting.sol\":2051:2056  a2[j] */\n      dup2\n      mload\n      dup2\n      lt\n      tag_141\n      jumpi\n      tag_142\n      tag_52\n      jump\t// in\n    tag_142:\n    tag_141:\n      0x20\n      mul\n      0x20\n      add\n      add\n      mload\n        /* \"constracts/task1/Voting.sol\":2044:2047  all */\n      dup5\n        /* \"constracts/task1/Voting.sol\":2048:2049  k */\n      dup5\n        /* \"constracts/task1/Voting.sol\":2044:2050  all[k] */\n      dup2\n      mload\n      dup2\n      lt\n      tag_143\n      jumpi\n      tag_144\n      tag_52\n      jump\t// in\n    tag_144:\n    tag_143:\n      0x20\n      mul\n      0x20\n      add\n      add\n        /* \"constracts/task1/Voting.sol\":2044:2056  all[k]=a2[j] */\n      dup2\n      dup2\n      mstore\n      pop\n      pop\n        /* \"constracts/task1/Voting.sol\":2071:2074  j++ */\n      dup1\n      dup1\n      tag_145\n      swap1\n      tag_122\n      jump\t// in\n    tag_145:\n      swap2\n      pop\n      pop\n        /* \"constracts/task1/Voting.sol\":2089:2092  k++ */\n      dup3\n      dup1\n      tag_146\n      swap1\n      tag_122\n      jump\t// in\n    tag_146:\n      swap4\n      pop\n      pop\n        /* \"constracts/task1/Voting.sol\":2011:2104  while(j<a2.length){... */\n      jump(tag_139)\n    tag_140:\n        /* \"constracts/task1/Voting.sol\":2127:2130  all */\n      dup4\n        /* \"constracts/task1/Voting.sol\":2120:2130  return all */\n      swap7\n      pop\n      pop\n      pop\n      pop\n      pop\n      pop\n      pop\n        /* \"constracts/task1/Voting.sol\":1191:2140  function arrConSort() public pure returns(uint[] memory){... */\n      swap1\n      jump\t// out\n        /* \"constracts/task1/Voting.sol\":432:582  function vote (address addr) public {... */\n    tag_30:\n        /* \"constracts/task1/Voting.sol\":496:497  0 */\n      0x00\n        /* \"constracts/task1/Voting.sol\":483:488  votes */\n      0x00\n        /* \"constracts/task1/Voting.sol\":483:494  votes[addr] */\n      0x00\n        /* \"constracts/task1/Voting.sol\":489:493  addr */\n      dup4\n        /* \"constracts/task1/Voting.sol\":483:494  votes[addr] */\n      0xffffffffffffffffffffffffffffffffffffffff\n      and\n      0xffffffffffffffffffffffffffffffffffffffff\n      and\n      dup2\n      mstore\n      0x20\n      add\n      swap1\n      dup2\n      mstore\n      0x20\n      add\n      0x00\n      keccak256\n      sload\n        /* \"constracts/task1/Voting.sol\":483:497  votes[addr]==0 */\n      sub\n        /* \"constracts/task1/Voting.sol\":479:544  if (votes[addr]==0){... */\n      tag_148\n      jumpi\n        /* \"constracts/task1/Voting.sol\":513:521  addrList */\n      0x01\n        /* \"constracts/task1/Voting.sol\":527:531  addr */\n      dup2\n        /* \"constracts/task1/Voting.sol\":513:532  addrList.push(addr) */\n      swap1\n      dup1\n      0x01\n      dup2\n      sload\n      add\n      dup1\n      dup3\n      sstore\n      dup1\n      swap2\n      pop\n      pop\n      0x01\n      swap1\n      sub\n      swap1\n      0x00\n      mstore\n      keccak256(0x00, 0x20)\n      add\n      0x00\n      swap1\n      swap2\n      swap1\n      swap2\n      swap1\n      swap2\n      0x0100\n      exp\n      dup2\n      sload\n      dup2\n      0xffffffffffffffffffffffffffffffffffffffff\n      mul\n      not\n      and\n      swap1\n      dup4\n      0xffffffffffffffffffffffffffffffffffffffff\n      and\n      mul\n      or\n      swap1\n      sstore\n      pop\n        /* \"constracts/task1/Voting.sol\":479:544  if (votes[addr]==0){... */\n    tag_148:\n        /* \"constracts/task1/Voting.sol\":567:568  1 */\n      0x01\n        /* \"constracts/task1/Voting.sol\":554:559  votes */\n      0x00\n        /* \"constracts/task1/Voting.sol\":554:565  votes[addr] */\n      0x00\n        /* \"constracts/task1/Voting.sol\":560:564  addr */\n      dup4\n        /* \"constracts/task1/Voting.sol\":554:565  votes[addr] */\n      0xffffffffffffffffffffffffffffffffffffffff\n      and\n      0xffffffffffffffffffffffffffffffffffffffff\n      and\n      dup2\n      mstore\n      0x20\n      add\n      swap1\n      dup2\n      mstore\n      0x20\n      add\n      0x00\n      keccak256\n      0x00\n        /* \"constracts/task1/Voting.sol\":554:568  votes[addr]+=1 */\n      dup3\n      dup3\n      sload\n      tag_150\n      swap2\n      swap1\n      tag_69\n      jump\t// in\n    tag_150:\n      swap3\n      pop\n      pop\n      dup2\n      swap1\n      sstore\n      pop\n        /* \"constracts/task1/Voting.sol\":432:582  function vote (address addr) public {... */\n      pop\n      jump\t// out\n        /* \"constracts/task1/Voting.sol\":268:293  address[] public addrList */\n    tag_33:\n      0x01\n      dup2\n      dup2\n      sload\n      dup2\n      lt\n      tag_151\n      jumpi\n      0x00\n      dup1\n      revert\n    tag_151:\n      swap1\n      0x00\n      mstore\n      keccak256(0x00, 0x20)\n      add\n      0x00\n      swap2\n      pop\n      sload\n      swap1\n      0x0100\n      exp\n      swap1\n      div\n      0xffffffffffffffffffffffffffffffffffffffff\n      and\n      dup2\n      jump\t// out\n        /* \"constracts/task1/Voting.sol\":652:751  function  getVotes(address addr) public view returns (uint256){... */\n    tag_37:\n        /* \"constracts/task1/Voting.sol\":706:713  uint256 */\n      0x00\n        /* \"constracts/task1/Voting.sol\":732:737  votes */\n      0x00\n        /* \"constracts/task1/Voting.sol\":732:743  votes[addr] */\n      0x00\n        /* \"constracts/task1/Voting.sol\":738:742  addr */\n      dup4\n        /* \"constracts/task1/Voting.sol\":732:743  votes[addr] */\n      0xffffffffffffffffffffffffffffffffffffffff\n      and\n      0xffffffffffffffffffffffffffffffffffffffff\n      and\n      dup2\n      mstore\n      0x20\n      add\n      swap1\n      dup2\n      mstore\n      0x20\n      add\n      0x00\n      keccak256\n      sload\n        /* \"constracts/task1/Voting.sol\":725:743  return votes[addr] */\n      swap1\n      pop\n        /* \"constracts/task1/Voting.sol\":652:751  function  getVotes(address addr) public view returns (uint256){... */\n      swap2\n      swap1\n      pop\n      jump\t// out\n        /* \"constracts/task1/Voting.sol\":826:989  function resetVotes() public  {... */\n    tag_40:\n        /* \"constracts/task1/Voting.sol\":872:881  uint256 i */\n      0x00\n        /* \"constracts/task1/Voting.sol\":882:883  0 */\n      0x00\n        /* \"constracts/task1/Voting.sol\":872:883  uint256 i=0 */\n      swap1\n      pop\n        /* \"constracts/task1/Voting.sol\":867:956  for (uint256 i=0; i<addrList.length; i++) {... */\n    tag_155:\n        /* \"constracts/task1/Voting.sol\":887:895  addrList */\n      0x01\n        /* \"constracts/task1/Voting.sol\":887:902  addrList.length */\n      dup1\n      sload\n      swap1\n      pop\n        /* \"constracts/task1/Voting.sol\":885:886  i */\n      dup2\n        /* \"constracts/task1/Voting.sol\":885:902  i<addrList.length */\n      lt\n        /* \"constracts/task1/Voting.sol\":867:956  for (uint256 i=0; i<addrList.length; i++) {... */\n      iszero\n      tag_156\n      jumpi\n        /* \"constracts/task1/Voting.sol\":943:944  0 */\n      0x00\n        /* \"constracts/task1/Voting.sol\":924:929  votes */\n      0x00\n        /* \"constracts/task1/Voting.sol\":924:942  votes[addrList[i]] */\n      0x00\n        /* \"constracts/task1/Voting.sol\":930:938  addrList */\n      0x01\n        /* \"constracts/task1/Voting.sol\":939:940  i */\n      dup5\n        /* \"constracts/task1/Voting.sol\":930:941  addrList[i] */\n      dup2\n      sload\n      dup2\n      lt\n      tag_158\n      jumpi\n      tag_159\n      tag_52\n      jump\t// in\n    tag_159:\n    tag_158:\n      swap1\n      0x00\n      mstore\n      keccak256(0x00, 0x20)\n      add\n      0x00\n      swap1\n      sload\n      swap1\n      0x0100\n      exp\n      swap1\n      div\n      0xffffffffffffffffffffffffffffffffffffffff\n      and\n        /* \"constracts/task1/Voting.sol\":924:942  votes[addrList[i]] */\n      0xffffffffffffffffffffffffffffffffffffffff\n      and\n      0xffffffffffffffffffffffffffffffffffffffff\n      and\n      dup2\n      mstore\n      0x20\n      add\n      swap1\n      dup2\n      mstore\n      0x20\n      add\n      0x00\n      keccak256\n        /* \"constracts/task1/Voting.sol\":924:944  votes[addrList[i]]=0 */\n      dup2\n      swap1\n      sstore\n      pop\n        /* \"constracts/task1/Voting.sol\":904:907  i++ */\n      dup1\n      dup1\n      0x01\n      add\n      swap2\n      pop\n      pop\n        /* \"constracts/task1/Voting.sol\":867:956  for (uint256 i=0; i<addrList.length; i++) {... */\n      jump(tag_155)\n    tag_156:\n      pop\n        /* \"constracts/task1/Voting.sol\":973:981  addrList */\n      0x01\n      0x00\n        /* \"constracts/task1/Voting.sol\":966:981  delete addrList */\n      tag_161\n      swap2\n      swap1\n      tag_162\n      jump\t// in\n    tag_161:\n        /* \"constracts/task1/Voting.sol\":826:989  function resetVotes() public  {... */\n      jump\t// out\n        /* \"constracts/task1/Voting.sol\":219:259  mapping (address=>uint256) public  votes */\n    tag_43:\n      mstore(0x20, 0x00)\n      dup1\n      0x00\n      mstore\n      keccak256(0x00, 0x40)\n      0x00\n      swap2\n      pop\n      swap1\n      pop\n      sload\n      dup2\n      jump\t// out\n    tag_162:\n      pop\n      dup1\n      sload\n      0x00\n      dup3\n      sstore\n      swap1\n      0x00\n      mstore\n      keccak256(0x00, 0x20)\n      swap1\n      dup2\n      add\n      swap1\n      tag_164\n      swap2\n      swap1\n      tag_165\n      jump\t// in\n    tag_164:\n      pop\n      jump\t// out\n    tag_165:\n    tag_166:\n      dup1\n      dup3\n      gt\n      iszero\n      tag_167\n      jumpi\n      0x00\n      dup2\n      0x00\n      swap1\n      sstore\n      pop\n      0x01\n      add\n      jump(tag_166)\n    tag_167:\n      pop\n      swap1\n      jump\t// out\n        /* \"#utility.yul\":88:205   */\n    tag_169:\n        /* \"#utility.yul\":197:198   */\n      0x00\n        /* \"#utility.yul\":194:195   */\n      0x00\n        /* \"#utility.yul\":187:199   */\n      revert\n        /* \"#utility.yul\":334:411   */\n    tag_171:\n        /* \"#utility.yul\":371:378   */\n      0x00\n        /* \"#utility.yul\":400:405   */\n      dup2\n        /* \"#utility.yul\":389:405   */\n      swap1\n      pop\n        /* \"#utility.yul\":334:411   */\n      swap2\n      swap1\n      pop\n      jump\t// out\n        /* \"#utility.yul\":417:539   */\n    tag_172:\n        /* \"#utility.yul\":490:514   */\n      tag_195\n        /* \"#utility.yul\":508:513   */\n      dup2\n        /* \"#utility.yul\":490:514   */\n      tag_171\n      jump\t// in\n    tag_195:\n        /* \"#utility.yul\":483:488   */\n      dup2\n        /* \"#utility.yul\":480:515   */\n      eq\n        /* \"#utility.yul\":470:533   */\n      tag_196\n      jumpi\n        /* \"#utility.yul\":529:530   */\n      0x00\n        /* \"#utility.yul\":526:527   */\n      0x00\n        /* \"#utility.yul\":519:531   */\n      revert\n        /* \"#utility.yul\":470:533   */\n    tag_196:\n        /* \"#utility.yul\":417:539   */\n      pop\n      jump\t// out\n        /* \"#utility.yul\":545:684   */\n    tag_173:\n        /* \"#utility.yul\":591:596   */\n      0x00\n        /* \"#utility.yul\":629:635   */\n      dup2\n        /* \"#utility.yul\":616:636   */\n      calldataload\n        /* \"#utility.yul\":607:636   */\n      swap1\n      pop\n        /* \"#utility.yul\":645:678   */\n      tag_198\n        /* \"#utility.yul\":672:677   */\n      dup2\n        /* \"#utility.yul\":645:678   */\n      tag_172\n      jump\t// in\n    tag_198:\n        /* \"#utility.yul\":545:684   */\n      swap3\n      swap2\n      pop\n      pop\n      jump\t// out\n        /* \"#utility.yul\":690:1019   */\n    tag_14:\n        /* \"#utility.yul\":749:755   */\n      0x00\n        /* \"#utility.yul\":798:800   */\n      0x20\n        /* \"#utility.yul\":786:795   */\n      dup3\n        /* \"#utility.yul\":777:784   */\n      dup5\n        /* \"#utility.yul\":773:796   */\n      sub\n        /* \"#utility.yul\":769:801   */\n      slt\n        /* \"#utility.yul\":766:885   */\n      iszero\n      tag_200\n      jumpi\n        /* \"#utility.yul\":804:883   */\n      tag_201\n      tag_169\n      jump\t// in\n    tag_201:\n        /* \"#utility.yul\":766:885   */\n    tag_200:\n        /* \"#utility.yul\":924:925   */\n      0x00\n        /* \"#utility.yul\":949:1002   */\n      tag_202\n        /* \"#utility.yul\":994:1001   */\n      dup5\n        /* \"#utility.yul\":985:991   */\n      dup3\n        /* \"#utility.yul\":974:983   */\n      dup6\n        /* \"#utility.yul\":970:992   */\n      add\n        /* \"#utility.yul\":949:1002   */\n      tag_173\n      jump\t// in\n    tag_202:\n        /* \"#utility.yul\":939:1002   */\n      swap2\n      pop\n        /* \"#utility.yul\":895:1012   */\n      pop\n        /* \"#utility.yul\":690:1019   */\n      swap3\n      swap2\n      pop\n      pop\n      jump\t// out\n        /* \"#utility.yul\":1025:1143   */\n    tag_174:\n        /* \"#utility.yul\":1112:1136   */\n      tag_204\n        /* \"#utility.yul\":1130:1135   */\n      dup2\n        /* \"#utility.yul\":1112:1136   */\n      tag_171\n      jump\t// in\n    tag_204:\n        /* \"#utility.yul\":1107:1110   */\n      dup3\n        /* \"#utility.yul\":1100:1137   */\n      mstore\n        /* \"#utility.yul\":1025:1143   */\n      pop\n      pop\n      jump\t// out\n        /* \"#utility.yul\":1149:1371   */\n    tag_17:\n        /* \"#utility.yul\":1242:1246   */\n      0x00\n        /* \"#utility.yul\":1280:1282   */\n      0x20\n        /* \"#utility.yul\":1269:1278   */\n      dup3\n        /* \"#utility.yul\":1265:1283   */\n      add\n        /* \"#utility.yul\":1257:1283   */\n      swap1\n      pop\n        /* \"#utility.yul\":1293:1364   */\n      tag_206\n        /* \"#utility.yul\":1361:1362   */\n      0x00\n        /* \"#utility.yul\":1350:1359   */\n      dup4\n        /* \"#utility.yul\":1346:1363   */\n      add\n        /* \"#utility.yul\":1337:1343   */\n      dup5\n        /* \"#utility.yul\":1293:1364   */\n      tag_174\n      jump\t// in\n    tag_206:\n        /* \"#utility.yul\":1149:1371   */\n      swap3\n      swap2\n      pop\n      pop\n      jump\t// out\n        /* \"#utility.yul\":1377:1503   */\n    tag_175:\n        /* \"#utility.yul\":1414:1421   */\n      0x00\n        /* \"#utility.yul\":1454:1496   */\n      0xffffffffffffffffffffffffffffffffffffffff\n        /* \"#utility.yul\":1447:1452   */\n      dup3\n        /* \"#utility.yul\":1443:1497   */\n      and\n        /* \"#utility.yul\":1432:1497   */\n      swap1\n      pop\n        /* \"#utility.yul\":1377:1503   */\n      swap2\n      swap1\n      pop\n      jump\t// out\n        /* \"#utility.yul\":1509:1605   */\n    tag_176:\n        /* \"#utility.yul\":1546:1553   */\n      0x00\n        /* \"#utility.yul\":1575:1599   */\n      tag_209\n        /* \"#utility.yul\":1593:1598   */\n      dup3\n        /* \"#utility.yul\":1575:1599   */\n      tag_175\n      jump\t// in\n    tag_209:\n        /* \"#utility.yul\":1564:1599   */\n      swap1\n      pop\n        /* \"#utility.yul\":1509:1605   */\n      swap2\n      swap1\n      pop\n      jump\t// out\n        /* \"#utility.yul\":1611:1729   */\n    tag_177:\n        /* \"#utility.yul\":1698:1722   */\n      tag_211\n        /* \"#utility.yul\":1716:1721   */\n      dup2\n        /* \"#utility.yul\":1698:1722   */\n      tag_176\n      jump\t// in\n    tag_211:\n        /* \"#utility.yul\":1693:1696   */\n      dup3\n        /* \"#utility.yul\":1686:1723   */\n      mstore\n        /* \"#utility.yul\":1611:1729   */\n      pop\n      pop\n      jump\t// out\n        /* \"#utility.yul\":1735:1957   */\n    tag_22:\n        /* \"#utility.yul\":1828:1832   */\n      0x00\n        /* \"#utility.yul\":1866:1868   */\n      0x20\n        /* \"#utility.yul\":1855:1864   */\n      dup3\n        /* \"#utility.yul\":1851:1869   */\n      add\n        /* \"#utility.yul\":1843:1869   */\n      swap1\n      pop\n        /* \"#utility.yul\":1879:1950   */\n      tag_213\n        /* \"#utility.yul\":1947:1948   */\n      0x00\n        /* \"#utility.yul\":1936:1945   */\n      dup4\n        /* \"#utility.yul\":1932:1949   */\n      add\n        /* \"#utility.yul\":1923:1929   */\n      dup5\n        /* \"#utility.yul\":1879:1950   */\n      tag_177\n      jump\t// in\n    tag_213:\n        /* \"#utility.yul\":1735:1957   */\n      swap3\n      swap2\n      pop\n      pop\n      jump\t// out\n        /* \"#utility.yul\":1963:2077   */\n    tag_178:\n        /* \"#utility.yul\":2030:2036   */\n      0x00\n        /* \"#utility.yul\":2064:2069   */\n      dup2\n        /* \"#utility.yul\":2058:2070   */\n      mload\n        /* \"#utility.yul\":2048:2070   */\n      swap1\n      pop\n        /* \"#utility.yul\":1963:2077   */\n      swap2\n      swap1\n      pop\n      jump\t// out\n        /* \"#utility.yul\":2083:2267   */\n    tag_179:\n        /* \"#utility.yul\":2182:2193   */\n      0x00\n        /* \"#utility.yul\":2216:2222   */\n      dup3\n        /* \"#utility.yul\":2211:2214   */\n      dup3\n        /* \"#utility.yul\":2204:2223   */\n      mstore\n        /* \"#utility.yul\":2256:2260   */\n      0x20\n        /* \"#utility.yul\":2251:2254   */\n      dup3\n        /* \"#utility.yul\":2247:2261   */\n      add\n        /* \"#utility.yul\":2232:2261   */\n      swap1\n      pop\n        /* \"#utility.yul\":2083:2267   */\n      swap3\n      swap2\n      pop\n      pop\n      jump\t// out\n        /* \"#utility.yul\":2273:2405   */\n    tag_180:\n        /* \"#utility.yul\":2340:2344   */\n      0x00\n        /* \"#utility.yul\":2363:2366   */\n      dup2\n        /* \"#utility.yul\":2355:2366   */\n      swap1\n      pop\n        /* \"#utility.yul\":2393:2397   */\n      0x20\n        /* \"#utility.yul\":2388:2391   */\n      dup3\n        /* \"#utility.yul\":2384:2398   */\n      add\n        /* \"#utility.yul\":2376:2398   */\n      swap1\n      pop\n        /* \"#utility.yul\":2273:2405   */\n      swap2\n      swap1\n      pop\n      jump\t// out\n        /* \"#utility.yul\":2411:2519   */\n    tag_181:\n        /* \"#utility.yul\":2488:2512   */\n      tag_218\n        /* \"#utility.yul\":2506:2511   */\n      dup2\n        /* \"#utility.yul\":2488:2512   */\n      tag_171\n      jump\t// in\n    tag_218:\n        /* \"#utility.yul\":2483:2486   */\n      dup3\n        /* \"#utility.yul\":2476:2513   */\n      mstore\n        /* \"#utility.yul\":2411:2519   */\n      pop\n      pop\n      jump\t// out\n        /* \"#utility.yul\":2525:2704   */\n    tag_182:\n        /* \"#utility.yul\":2594:2604   */\n      0x00\n        /* \"#utility.yul\":2615:2661   */\n      tag_220\n        /* \"#utility.yul\":2657:2660   */\n      dup4\n        /* \"#utility.yul\":2649:2655   */\n      dup4\n        /* \"#utility.yul\":2615:2661   */\n      tag_181\n      jump\t// in\n    tag_220:\n        /* \"#utility.yul\":2693:2697   */\n      0x20\n        /* \"#utility.yul\":2688:2691   */\n      dup4\n        /* \"#utility.yul\":2684:2698   */\n      add\n        /* \"#utility.yul\":2670:2698   */\n      swap1\n      pop\n        /* \"#utility.yul\":2525:2704   */\n      swap3\n      swap2\n      pop\n      pop\n      jump\t// out\n        /* \"#utility.yul\":2710:2823   */\n    tag_183:\n        /* \"#utility.yul\":2780:2784   */\n      0x00\n        /* \"#utility.yul\":2812:2816   */\n      0x20\n        /* \"#utility.yul\":2807:2810   */\n      dup3\n        /* \"#utility.yul\":2803:2817   */\n      add\n        /* \"#utility.yul\":2795:2817   */\n      swap1\n      pop\n        /* \"#utility.yul\":2710:2823   */\n      swap2\n      swap1\n      pop\n      jump\t// out\n        /* \"#utility.yul\":2859:3591   */\n    tag_184:\n        /* \"#utility.yul\":2978:2981   */\n      0x00\n        /* \"#utility.yul\":3007:3061   */\n      tag_223\n        /* \"#utility.yul\":3055:3060   */\n      dup3\n        /* \"#utility.yul\":3007:3061   */\n      tag_178\n      jump\t// in\n    tag_223:\n        /* \"#utility.yul\":3077:3163   */\n      tag_224\n        /* \"#utility.yul\":3156:3162   */\n      dup2\n        /* \"#utility.yul\":3151:3154   */\n      dup6\n        /* \"#utility.yul\":3077:3163   */\n      tag_179\n      jump\t// in\n    tag_224:\n        /* \"#utility.yul\":3070:3163   */\n      swap4\n      pop\n        /* \"#utility.yul\":3187:3243   */\n      tag_225\n        /* \"#utility.yul\":3237:3242   */\n      dup4\n        /* \"#utility.yul\":3187:3243   */\n      tag_180\n      jump\t// in\n    tag_225:\n        /* \"#utility.yul\":3266:3273   */\n      dup1\n        /* \"#utility.yul\":3297:3298   */\n      0x00\n        /* \"#utility.yul\":3282:3566   */\n    tag_226:\n        /* \"#utility.yul\":3307:3313   */\n      dup4\n        /* \"#utility.yul\":3304:3305   */\n      dup2\n        /* \"#utility.yul\":3301:3314   */\n      lt\n        /* \"#utility.yul\":3282:3566   */\n      iszero\n      tag_228\n      jumpi\n        /* \"#utility.yul\":3383:3389   */\n      dup2\n        /* \"#utility.yul\":3377:3390   */\n      mload\n        /* \"#utility.yul\":3410:3473   */\n      tag_229\n        /* \"#utility.yul\":3469:3472   */\n      dup9\n        /* \"#utility.yul\":3454:3467   */\n      dup3\n        /* \"#utility.yul\":3410:3473   */\n      tag_182\n      jump\t// in\n    tag_229:\n        /* \"#utility.yul\":3403:3473   */\n      swap8\n      pop\n        /* \"#utility.yul\":3496:3556   */\n      tag_230\n        /* \"#utility.yul\":3549:3555   */\n      dup4\n        /* \"#utility.yul\":3496:3556   */\n      tag_183\n      jump\t// in\n    tag_230:\n        /* \"#utility.yul\":3486:3556   */\n      swap3\n      pop\n        /* \"#utility.yul\":3342:3566   */\n      pop\n        /* \"#utility.yul\":3329:3330   */\n      0x01\n        /* \"#utility.yul\":3326:3327   */\n      dup2\n        /* \"#utility.yul\":3322:3331   */\n      add\n        /* \"#utility.yul\":3317:3331   */\n      swap1\n      pop\n        /* \"#utility.yul\":3282:3566   */\n      jump(tag_226)\n    tag_228:\n        /* \"#utility.yul\":3286:3300   */\n      pop\n        /* \"#utility.yul\":3582:3585   */\n      dup6\n        /* \"#utility.yul\":3575:3585   */\n      swap4\n      pop\n        /* \"#utility.yul\":2983:3591   */\n      pop\n      pop\n      pop\n        /* \"#utility.yul\":2859:3591   */\n      swap3\n      swap2\n      pop\n      pop\n      jump\t// out\n        /* \"#utility.yul\":3597:3970   */\n    tag_26:\n        /* \"#utility.yul\":3740:3744   */\n      0x00\n        /* \"#utility.yul\":3778:3780   */\n      0x20\n        /* \"#utility.yul\":3767:3776   */\n      dup3\n        /* \"#utility.yul\":3763:3781   */\n      add\n        /* \"#utility.yul\":3755:3781   */\n      swap1\n      pop\n        /* \"#utility.yul\":3827:3836   */\n      dup2\n        /* \"#utility.yul\":3821:3825   */\n      dup2\n        /* \"#utility.yul\":3817:3837   */\n      sub\n        /* \"#utility.yul\":3813:3814   */\n      0x00\n        /* \"#utility.yul\":3802:3811   */\n      dup4\n        /* \"#utility.yul\":3798:3815   */\n      add\n        /* \"#utility.yul\":3791:3838   */\n      mstore\n        /* \"#utility.yul\":3855:3963   */\n      tag_232\n        /* \"#utility.yul\":3958:3962   */\n      dup2\n        /* \"#utility.yul\":3949:3955   */\n      dup5\n        /* \"#utility.yul\":3855:3963   */\n      tag_184\n      jump\t// in\n    tag_232:\n        /* \"#utility.yul\":3847:3963   */\n      swap1\n      pop\n        /* \"#utility.yul\":3597:3970   */\n      swap3\n      swap2\n      pop\n      pop\n      jump\t// out\n        /* \"#utility.yul\":3976:4098   */\n    tag_185:\n        /* \"#utility.yul\":4049:4073   */\n      tag_234\n        /* \"#utility.yul\":4067:4072   */\n      dup2\n        /* \"#utility.yul\":4049:4073   */\n      tag_176\n      jump\t// in\n    tag_234:\n        /* \"#utility.yul\":4042:4047   */\n      dup2\n        /* \"#utility.yul\":4039:4074   */\n      eq\n        /* \"#utility.yul\":4029:4092   */\n      tag_235\n      jumpi\n        /* \"#utility.yul\":4088:4089   */\n      0x00\n        /* \"#utility.yul\":4085:4086   */\n      0x00\n        /* \"#utility.yul\":4078:4090   */\n      revert\n        /* \"#utility.yul\":4029:4092   */\n    tag_235:\n        /* \"#utility.yul\":3976:4098   */\n      pop\n      jump\t// out\n        /* \"#utility.yul\":4104:4243   */\n    tag_186:\n        /* \"#utility.yul\":4150:4155   */\n      0x00\n        /* \"#utility.yul\":4188:4194   */\n      dup2\n        /* \"#utility.yul\":4175:4195   */\n      calldataload\n        /* \"#utility.yul\":4166:4195   */\n      swap1\n      pop\n        /* \"#utility.yul\":4204:4237   */\n      tag_237\n        /* \"#utility.yul\":4231:4236   */\n      dup2\n        /* \"#utility.yul\":4204:4237   */\n      tag_185\n      jump\t// in\n    tag_237:\n        /* \"#utility.yul\":4104:4243   */\n      swap3\n      swap2\n      pop\n      pop\n      jump\t// out\n        /* \"#utility.yul\":4249:4578   */\n    tag_29:\n        /* \"#utility.yul\":4308:4314   */\n      0x00\n        /* \"#utility.yul\":4357:4359   */\n      0x20\n        /* \"#utility.yul\":4345:4354   */\n      dup3\n        /* \"#utility.yul\":4336:4343   */\n      dup5\n        /* \"#utility.yul\":4332:4355   */\n      sub\n        /* \"#utility.yul\":4328:4360   */\n      slt\n        /* \"#utility.yul\":4325:4444   */\n      iszero\n      tag_239\n      jumpi\n        /* \"#utility.yul\":4363:4442   */\n      tag_240\n      tag_169\n      jump\t// in\n    tag_240:\n        /* \"#utility.yul\":4325:4444   */\n    tag_239:\n        /* \"#utility.yul\":4483:4484   */\n      0x00\n        /* \"#utility.yul\":4508:4561   */\n      tag_241\n        /* \"#utility.yul\":4553:4560   */\n      dup5\n        /* \"#utility.yul\":4544:4550   */\n      dup3\n        /* \"#utility.yul\":4533:4542   */\n      dup6\n        /* \"#utility.yul\":4529:4551   */\n      add\n        /* \"#utility.yul\":4508:4561   */\n      tag_186\n      jump\t// in\n    tag_241:\n        /* \"#utility.yul\":4498:4561   */\n      swap2\n      pop\n        /* \"#utility.yul\":4454:4571   */\n      pop\n        /* \"#utility.yul\":4249:4578   */\n      swap3\n      swap2\n      pop\n      pop\n      jump\t// out\n        /* \"#utility.yul\":4584:4764   */\n    tag_48:\n        /* \"#utility.yul\":4632:4709   */\n      0x4e487b7100000000000000000000000000000000000000000000000000000000\n        /* \"#utility.yul\":4629:4630   */\n      0x00\n        /* \"#utility.yul\":4622:4710   */\n      mstore\n        /* \"#utility.yul\":4729:4733   */\n      0x41\n        /* \"#utility.yul\":4726:4727   */\n      0x04\n        /* \"#utility.yul\":4719:4734   */\n      mstore\n        /* \"#utility.yul\":4753:4757   */\n      0x24\n        /* \"#utility.yul\":4750:4751   */\n      0x00\n        /* \"#utility.yul\":4743:4758   */\n      revert\n        /* \"#utility.yul\":4770:4950   */\n    tag_52:\n        /* \"#utility.yul\":4818:4895   */\n      0x4e487b7100000000000000000000000000000000000000000000000000000000\n        /* \"#utility.yul\":4815:4816   */\n      0x00\n        /* \"#utility.yul\":4808:4896   */\n      mstore\n        /* \"#utility.yul\":4915:4919   */\n      0x32\n        /* \"#utility.yul\":4912:4913   */\n      0x04\n        /* \"#utility.yul\":4905:4920   */\n      mstore\n        /* \"#utility.yul\":4939:4943   */\n      0x24\n        /* \"#utility.yul\":4936:4937   */\n      0x00\n        /* \"#utility.yul\":4929:4944   */\n      revert\n        /* \"#utility.yul\":4956:5136   */\n    tag_187:\n        /* \"#utility.yul\":5004:5081   */\n      0x4e487b7100000000000000000000000000000000000000000000000000000000\n        /* \"#utility.yul\":5001:5002   */\n      0x00\n        /* \"#utility.yul\":4994:5082   */\n      mstore\n        /* \"#utility.yul\":5101:5105   */\n      0x11\n        /* \"#utility.yul\":5098:5099   */\n      0x04\n        /* \"#utility.yul\":5091:5106   */\n      mstore\n        /* \"#utility.yul\":5125:5129   */\n      0x24\n        /* \"#utility.yul\":5122:5123   */\n      0x00\n        /* \"#utility.yul\":5115:5130   */\n      revert\n        /* \"#utility.yul\":5142:5336   */\n    tag_62:\n        /* \"#utility.yul\":5182:5186   */\n      0x00\n        /* \"#utility.yul\":5202:5222   */\n      tag_246\n        /* \"#utility.yul\":5220:5221   */\n      dup3\n        /* \"#utility.yul\":5202:5222   */\n      tag_171\n      jump\t// in\n    tag_246:\n        /* \"#utility.yul\":5197:5222   */\n      swap2\n      pop\n        /* \"#utility.yul\":5236:5256   */\n      tag_247\n        /* \"#utility.yul\":5254:5255   */\n      dup4\n        /* \"#utility.yul\":5236:5256   */\n      tag_171\n      jump\t// in\n    tag_247:\n        /* \"#utility.yul\":5231:5256   */\n      swap3\n      pop\n        /* \"#utility.yul\":5280:5281   */\n      dup3\n        /* \"#utility.yul\":5277:5278   */\n      dup3\n        /* \"#utility.yul\":5273:5282   */\n      sub\n        /* \"#utility.yul\":5265:5282   */\n      swap1\n      pop\n        /* \"#utility.yul\":5304:5305   */\n      dup2\n        /* \"#utility.yul\":5298:5302   */\n      dup2\n        /* \"#utility.yul\":5295:5306   */\n      gt\n        /* \"#utility.yul\":5292:5329   */\n      iszero\n      tag_248\n      jumpi\n        /* \"#utility.yul\":5309:5327   */\n      tag_249\n      tag_187\n      jump\t// in\n    tag_249:\n        /* \"#utility.yul\":5292:5329   */\n    tag_248:\n        /* \"#utility.yul\":5142:5336   */\n      swap3\n      swap2\n      pop\n      pop\n      jump\t// out\n        /* \"#utility.yul\":5342:5522   */\n    tag_188:\n        /* \"#utility.yul\":5390:5467   */\n      0x4e487b7100000000000000000000000000000000000000000000000000000000\n        /* \"#utility.yul\":5387:5388   */\n      0x00\n        /* \"#utility.yul\":5380:5468   */\n      mstore\n        /* \"#utility.yul\":5487:5491   */\n      0x12\n        /* \"#utility.yul\":5484:5485   */\n      0x04\n        /* \"#utility.yul\":5477:5492   */\n      mstore\n        /* \"#utility.yul\":5511:5515   */\n      0x24\n        /* \"#utility.yul\":5508:5509   */\n      0x00\n        /* \"#utility.yul\":5501:5516   */\n      revert\n        /* \"#utility.yul\":5528:5713   */\n    tag_67:\n        /* \"#utility.yul\":5568:5569   */\n      0x00\n        /* \"#utility.yul\":5585:5605   */\n      tag_252\n        /* \"#utility.yul\":5603:5604   */\n      dup3\n        /* \"#utility.yul\":5585:5605   */\n      tag_171\n      jump\t// in\n    tag_252:\n        /* \"#utility.yul\":5580:5605   */\n      swap2\n      pop\n        /* \"#utility.yul\":5619:5639   */\n      tag_253\n        /* \"#utility.yul\":5637:5638   */\n      dup4\n        /* \"#utility.yul\":5619:5639   */\n      tag_171\n      jump\t// in\n    tag_253:\n        /* \"#utility.yul\":5614:5639   */\n      swap3\n      pop\n        /* \"#utility.yul\":5658:5659   */\n      dup3\n        /* \"#utility.yul\":5648:5683   */\n      tag_254\n      jumpi\n        /* \"#utility.yul\":5663:5681   */\n      tag_255\n      tag_188\n      jump\t// in\n    tag_255:\n        /* \"#utility.yul\":5648:5683   */\n    tag_254:\n        /* \"#utility.yul\":5705:5706   */\n      dup3\n        /* \"#utility.yul\":5702:5703   */\n      dup3\n        /* \"#utility.yul\":5698:5707   */\n      div\n        /* \"#utility.yul\":5693:5707   */\n      swap1\n      pop\n        /* \"#utility.yul\":5528:5713   */\n      swap3\n      swap2\n      pop\n      pop\n      jump\t// out\n        /* \"#utility.yul\":5719:5910   */\n    tag_69:\n        /* \"#utility.yul\":5759:5762   */\n      0x00\n        /* \"#utility.yul\":5778:5798   */\n      tag_257\n        /* \"#utility.yul\":5796:5797   */\n      dup3\n        /* \"#utility.yul\":5778:5798   */\n      tag_171\n      jump\t// in\n    tag_257:\n        /* \"#utility.yul\":5773:5798   */\n      swap2\n      pop\n        /* \"#utility.yul\":5812:5832   */\n      tag_258\n        /* \"#utility.yul\":5830:5831   */\n      dup4\n        /* \"#utility.yul\":5812:5832   */\n      tag_171\n      jump\t// in\n    tag_258:\n        /* \"#utility.yul\":5807:5832   */\n      swap3\n      pop\n        /* \"#utility.yul\":5855:5856   */\n      dup3\n        /* \"#utility.yul\":5852:5853   */\n      dup3\n        /* \"#utility.yul\":5848:5857   */\n      add\n        /* \"#utility.yul\":5841:5857   */\n      swap1\n      pop\n        /* \"#utility.yul\":5876:5879   */\n      dup1\n        /* \"#utility.yul\":5873:5874   */\n      dup3\n        /* \"#utility.yul\":5870:5880   */\n      gt\n        /* \"#utility.yul\":5867:5903   */\n      iszero\n      tag_259\n      jumpi\n        /* \"#utility.yul\":5883:5901   */\n      tag_260\n      tag_187\n      jump\t// in\n    tag_260:\n        /* \"#utility.yul\":5867:5903   */\n    tag_259:\n        /* \"#utility.yul\":5719:5910   */\n      swap3\n      swap2\n      pop\n      pop\n      jump\t// out\n        /* \"#utility.yul\":5916:6149   */\n    tag_122:\n        /* \"#utility.yul\":5955:5958   */\n      0x00\n        /* \"#utility.yul\":5978:6002   */\n      tag_262\n        /* \"#utility.yul\":5996:6001   */\n      dup3\n        /* \"#utility.yul\":5978:6002   */\n      tag_171\n      jump\t// in\n    tag_262:\n        /* \"#utility.yul\":5969:6002   */\n      swap2\n      pop\n        /* \"#utility.yul\":6024:6090   */\n      0xffffffffffffffffffffffffffffffffffffffffffffffffffffffffffffffff\n        /* \"#utility.yul\":6017:6022   */\n      dup3\n        /* \"#utility.yul\":6014:6091   */\n      sub\n        /* \"#utility.yul\":6011:6114   */\n      tag_263\n      jumpi\n        /* \"#utility.yul\":6094:6112   */\n      tag_264\n      tag_187\n      jump\t// in\n    tag_264:\n        /* \"#utility.yul\":6011:6114   */\n    tag_263:\n        /* \"#utility.yul\":6141:6142   */\n      0x01\n        /* \"#utility.yul\":6134:6139   */\n      dup3\n        /* \"#utility.yul\":6130:6143   */\n      add\n        /* \"#utility.yul\":6123:6143   */\n      swap1\n      pop\n        /* \"#utility.yul\":5916:6149   */\n      swap2\n      swap1\n      pop\n      jump\t// out\n\n    auxdata: 0xa26469706673582212208c3cd84645c14734f53dc7bf1273be06181a2c80edbd04ddbe834f0c70a8e2cb64736f6c634300081e0033\n}\n",
				"bytecode": {
					"linkReferences": {},
					"object": "6080604052348015600e575f5ffd5b50610e0d8061001c5f395ff3fe608060405234801561000f575f5ffd5b5060043610610086575f3560e01c8063804025641161005957806380402564146101245780639ab24eb014610154578063b9830ff114610184578063d8bff5a51461018e57610086565b80630ff4c9161461008a57806315cb9ff7146100ba5780632e9eb7c6146100ea5780636dd7d8ea14610108575b5f5ffd5b6100a4600480360381019061009f9190610a6f565b6101be565b6040516100b19190610aa9565b60405180910390f35b6100d460048036038101906100cf9190610a6f565b61039d565b6040516100e19190610b01565b60405180910390f35b6100f26103d8565b6040516100ff9190610bd1565b60405180910390f35b610122600480360381019061011d9190610c1b565b6107c6565b005b61013e60048036038101906101399190610a6f565b6108c0565b60405161014b9190610b01565b60405180910390f35b61016e60048036038101906101699190610c1b565b6108fb565b60405161017b9190610aa9565b60405180910390f35b61018c610940565b005b6101a860048036038101906101a39190610c1b565b6109eb565b6040516101b59190610aa9565b60405180910390f35b5f5f600567ffffffffffffffff8111156101db576101da610c46565b5b6040519080825280602002602001820160405280156102095781602001602082028036833780820191505090505b5090506002815f8151811061022157610220610c73565b5b60200260200101818152505060038160018151811061024357610242610c73565b5b60200260200101818152505060058160028151811061026557610264610c73565b5b60200260200101818152505060078160038151811061028757610286610c73565b5b6020026020010181815250506009816004815181106102a9576102a8610c73565b5b6020026020010181815250505f5f90505f600183516102c89190610ccd565b90505b808211610371575f600283836102e19190610ccd565b6102eb9190610d2d565b836102f69190610d5d565b90508584828151811061030c5761030b610c73565b5b6020026020010151036103255780945050505050610398565b8584828151811061033957610338610c73565b5b6020026020010151101561035b576001816103549190610d5d565b925061036b565b6001816103689190610ccd565b91505b506102cb565b7fffffffffffffffffffffffffffffffffffffffffffffffffffffffffffffffff93505050505b919050565b600281815481106103ac575f80fd5b905f5260205f20015f915054906101000a900473ffffffffffffffffffffffffffffffffffffffff1681565b60605f600467ffffffffffffffff8111156103f6576103f5610c46565b5b6040519080825280602002602001820160405280156104245781602001602082028036833780820191505090505b5090506001815f8151811061043c5761043b610c73565b5b60200260200101818152505060048160018151811061045e5761045d610c73565b5b6020026020010181815250506005816002815181106104805761047f610c73565b5b6020026020010181815250506008816003815181106104a2576104a1610c73565b5b6020026020010181815250505f600467ffffffffffffffff8111156104ca576104c9610c46565b5b6040519080825280602002602001820160405280156104f85781602001602082028036833780820191505090505b5090506002815f815181106105105761050f610c73565b5b60200260200101818152505060038160018151811061053257610531610c73565b5b60200260200101818152505060078160028151811061055457610553610c73565b5b60200260200101818152505060098160038151811061057657610575610c73565b5b6020026020010181815250505f815183516105919190610d5d565b67ffffffffffffffff8111156105aa576105a9610c46565b5b6040519080825280602002602001820160405280156105d85781602001602082028036833780820191505090505b5090505f5f90505f5f90505f5f90505b8551821080156105f85750845181105b156106f0578481815181106106105761060f610c73565b5b602002602001015186838151811061062b5761062a610c73565b5b602002602001015110156106945785828151811061064c5761064b610c73565b5b602002602001015184848151811061066757610666610c73565b5b602002602001018181525050818061067e90610d90565b925050828061068c90610d90565b9350506106eb565b8481815181106106a7576106a6610c73565b5b60200260200101518484815181106106c2576106c1610c73565b5b60200260200101818152505080806106d990610d90565b91505082806106e790610d90565b9350505b6105e8565b5b85518210156107555785828151811061070d5761070c610c73565b5b602002602001015184848151811061072857610727610c73565b5b602002602001018181525050818061073f90610d90565b925050828061074d90610d90565b9350506106f1565b5b84518110156107ba5784818151811061077257610771610c73565b5b602002602001015184848151811061078d5761078c610c73565b5b60200260200101818152505080806107a490610d90565b91505082806107b290610d90565b935050610756565b83965050505050505090565b5f5f5f8373ffffffffffffffffffffffffffffffffffffffff1673ffffffffffffffffffffffffffffffffffffffff1681526020019081526020015f20540361086a57600181908060018154018082558091505060019003905f5260205f20015f9091909190916101000a81548173ffffffffffffffffffffffffffffffffffffffff021916908373ffffffffffffffffffffffffffffffffffffffff1602179055505b60015f5f8373ffffffffffffffffffffffffffffffffffffffff1673ffffffffffffffffffffffffffffffffffffffff1681526020019081526020015f205f8282546108b69190610d5d565b9250508190555050565b600181815481106108cf575f80fd5b905f5260205f20015f915054906101000a900473ffffffffffffffffffffffffffffffffffffffff1681565b5f5f5f8373ffffffffffffffffffffffffffffffffffffffff1673ffffffffffffffffffffffffffffffffffffffff1681526020019081526020015f20549050919050565b5f5f90505b6001805490508110156109db575f5f5f6001848154811061096957610968610c73565b5b905f5260205f20015f9054906101000a900473ffffffffffffffffffffffffffffffffffffffff1673ffffffffffffffffffffffffffffffffffffffff1673ffffffffffffffffffffffffffffffffffffffff1681526020019081526020015f20819055508080600101915050610945565b5060015f6109e991906109ff565b565b5f602052805f5260405f205f915090505481565b5080545f8255905f5260205f2090810190610a1a9190610a1d565b50565b5b80821115610a34575f815f905550600101610a1e565b5090565b5f5ffd5b5f819050919050565b610a4e81610a3c565b8114610a58575f5ffd5b50565b5f81359050610a6981610a45565b92915050565b5f60208284031215610a8457610a83610a38565b5b5f610a9184828501610a5b565b91505092915050565b610aa381610a3c565b82525050565b5f602082019050610abc5f830184610a9a565b92915050565b5f73ffffffffffffffffffffffffffffffffffffffff82169050919050565b5f610aeb82610ac2565b9050919050565b610afb81610ae1565b82525050565b5f602082019050610b145f830184610af2565b92915050565b5f81519050919050565b5f82825260208201905092915050565b5f819050602082019050919050565b610b4c81610a3c565b82525050565b5f610b5d8383610b43565b60208301905092915050565b5f602082019050919050565b5f610b7f82610b1a565b610b898185610b24565b9350610b9483610b34565b805f5b83811015610bc4578151610bab8882610b52565b9750610bb683610b69565b925050600181019050610b97565b5085935050505092915050565b5f6020820190508181035f830152610be98184610b75565b905092915050565b610bfa81610ae1565b8114610c04575f5ffd5b50565b5f81359050610c1581610bf1565b92915050565b5f60208284031215610c3057610c2f610a38565b5b5f610c3d84828501610c07565b91505092915050565b7f4e487b71000000000000000000000000000000000000000000000000000000005f52604160045260245ffd5b7f4e487b71000000000000000000000000000000000000000000000000000000005f52603260045260245ffd5b7f4e487b71000000000000000000000000000000000000000000000000000000005f52601160045260245ffd5b5f610cd782610a3c565b9150610ce283610a3c565b9250828203905081811115610cfa57610cf9610ca0565b5b92915050565b7f4e487b71000000000000000000000000000000000000000000000000000000005f52601260045260245ffd5b5f610d3782610a3c565b9150610d4283610a3c565b925082610d5257610d51610d00565b5b828204905092915050565b5f610d6782610a3c565b9150610d7283610a3c565b9250828201905080821115610d8a57610d89610ca0565b5b92915050565b5f610d9a82610a3c565b91507fffffffffffffffffffffffffffffffffffffffffffffffffffffffffffffffff8203610dcc57610dcb610ca0565b5b60018201905091905056fea26469706673582212208c3cd84645c14734f53dc7bf1273be06181a2c80edbd04ddbe834f0c70a8e2cb64736f6c634300081e0033",
					"opcodes": "PUSH1 0x80 PUSH1 0x40 MSTORE CALLVALUE DUP1 ISZERO PUSH1 0xE JUMPI PUSH0 PUSH0 REVERT JUMPDEST POP PUSH2 0xE0D DUP1 PUSH2 0x1C PUSH0 CODECOPY PUSH0 RETURN INVALID PUSH1 0x80 PUSH1 0x40 MSTORE CALLVALUE DUP1 ISZERO PUSH2 0xF JUMPI PUSH0 PUSH0 REVERT JUMPDEST POP PUSH1 0x4 CALLDATASIZE LT PUSH2 0x86 JUMPI PUSH0 CALLDATALOAD PUSH1 0xE0 SHR DUP1 PUSH4 0x80402564 GT PUSH2 0x59 JUMPI DUP1 PUSH4 0x80402564 EQ PUSH2 0x124 JUMPI DUP1 PUSH4 0x9AB24EB0 EQ PUSH2 0x154 JUMPI DUP1 PUSH4 0xB9830FF1 EQ PUSH2 0x184 JUMPI DUP1 PUSH4 0xD8BFF5A5 EQ PUSH2 0x18E JUMPI PUSH2 0x86 JUMP JUMPDEST DUP1 PUSH4 0xFF4C916 EQ PUSH2 0x8A JUMPI DUP1 PUSH4 0x15CB9FF7 EQ PUSH2 0xBA JUMPI DUP1 PUSH4 0x2E9EB7C6 EQ PUSH2 0xEA JUMPI DUP1 PUSH4 0x6DD7D8EA EQ PUSH2 0x108 JUMPI JUMPDEST PUSH0 PUSH0 REVERT JUMPDEST PUSH2 0xA4 PUSH1 0x4 DUP1 CALLDATASIZE SUB DUP2 ADD SWAP1 PUSH2 0x9F SWAP2 SWAP1 PUSH2 0xA6F JUMP JUMPDEST PUSH2 0x1BE JUMP JUMPDEST PUSH1 0x40 MLOAD PUSH2 0xB1 SWAP2 SWAP1 PUSH2 0xAA9 JUMP JUMPDEST PUSH1 0x40 MLOAD DUP1 SWAP2 SUB SWAP1 RETURN JUMPDEST PUSH2 0xD4 PUSH1 0x4 DUP1 CALLDATASIZE SUB DUP2 ADD SWAP1 PUSH2 0xCF SWAP2 SWAP1 PUSH2 0xA6F JUMP JUMPDEST PUSH2 0x39D JUMP JUMPDEST PUSH1 0x40 MLOAD PUSH2 0xE1 SWAP2 SWAP1 PUSH2 0xB01 JUMP JUMPDEST PUSH1 0x40 MLOAD DUP1 SWAP2 SUB SWAP1 RETURN JUMPDEST PUSH2 0xF2 PUSH2 0x3D8 JUMP JUMPDEST PUSH1 0x40 MLOAD PUSH2 0xFF SWAP2 SWAP1 PUSH2 0xBD1 JUMP JUMPDEST PUSH1 0x40 MLOAD DUP1 SWAP2 SUB SWAP1 RETURN JUMPDEST PUSH2 0x122 PUSH1 0x4 DUP1 CALLDATASIZE SUB DUP2 ADD SWAP1 PUSH2 0x11D SWAP2 SWAP1 PUSH2 0xC1B JUMP JUMPDEST PUSH2 0x7C6 JUMP JUMPDEST STOP JUMPDEST PUSH2 0x13E PUSH1 0x4 DUP1 CALLDATASIZE SUB DUP2 ADD SWAP1 PUSH2 0x139 SWAP2 SWAP1 PUSH2 0xA6F JUMP JUMPDEST PUSH2 0x8C0 JUMP JUMPDEST PUSH1 0x40 MLOAD PUSH2 0x14B SWAP2 SWAP1 PUSH2 0xB01 JUMP JUMPDEST PUSH1 0x40 MLOAD DUP1 SWAP2 SUB SWAP1 RETURN JUMPDEST PUSH2 0x16E PUSH1 0x4 DUP1 CALLDATASIZE SUB DUP2 ADD SWAP1 PUSH2 0x169 SWAP2 SWAP1 PUSH2 0xC1B JUMP JUMPDEST PUSH2 0x8FB JUMP JUMPDEST PUSH1 0x40 MLOAD PUSH2 0x17B SWAP2 SWAP1 PUSH2 0xAA9 JUMP JUMPDEST PUSH1 0x40 MLOAD DUP1 SWAP2 SUB SWAP1 RETURN JUMPDEST PUSH2 0x18C PUSH2 0x940 JUMP JUMPDEST STOP JUMPDEST PUSH2 0x1A8 PUSH1 0x4 DUP1 CALLDATASIZE SUB DUP2 ADD SWAP1 PUSH2 0x1A3 SWAP2 SWAP1 PUSH2 0xC1B JUMP JUMPDEST PUSH2 0x9EB JUMP JUMPDEST PUSH1 0x40 MLOAD PUSH2 0x1B5 SWAP2 SWAP1 PUSH2 0xAA9 JUMP JUMPDEST PUSH1 0x40 MLOAD DUP1 SWAP2 SUB SWAP1 RETURN JUMPDEST PUSH0 PUSH0 PUSH1 0x5 PUSH8 0xFFFFFFFFFFFFFFFF DUP2 GT ISZERO PUSH2 0x1DB JUMPI PUSH2 0x1DA PUSH2 0xC46 JUMP JUMPDEST JUMPDEST PUSH1 0x40 MLOAD SWAP1 DUP1 DUP3 MSTORE DUP1 PUSH1 0x20 MUL PUSH1 0x20 ADD DUP3 ADD PUSH1 0x40 MSTORE DUP1 ISZERO PUSH2 0x209 JUMPI DUP2 PUSH1 0x20 ADD PUSH1 0x20 DUP3 MUL DUP1 CALLDATASIZE DUP4 CALLDATACOPY DUP1 DUP3 ADD SWAP2 POP POP SWAP1 POP JUMPDEST POP SWAP1 POP PUSH1 0x2 DUP2 PUSH0 DUP2 MLOAD DUP2 LT PUSH2 0x221 JUMPI PUSH2 0x220 PUSH2 0xC73 JUMP JUMPDEST JUMPDEST PUSH1 0x20 MUL PUSH1 0x20 ADD ADD DUP2 DUP2 MSTORE POP POP PUSH1 0x3 DUP2 PUSH1 0x1 DUP2 MLOAD DUP2 LT PUSH2 0x243 JUMPI PUSH2 0x242 PUSH2 0xC73 JUMP JUMPDEST JUMPDEST PUSH1 0x20 MUL PUSH1 0x20 ADD ADD DUP2 DUP2 MSTORE POP POP PUSH1 0x5 DUP2 PUSH1 0x2 DUP2 MLOAD DUP2 LT PUSH2 0x265 JUMPI PUSH2 0x264 PUSH2 0xC73 JUMP JUMPDEST JUMPDEST PUSH1 0x20 MUL PUSH1 0x20 ADD ADD DUP2 DUP2 MSTORE POP POP PUSH1 0x7 DUP2 PUSH1 0x3 DUP2 MLOAD DUP2 LT PUSH2 0x287 JUMPI PUSH2 0x286 PUSH2 0xC73 JUMP JUMPDEST JUMPDEST PUSH1 0x20 MUL PUSH1 0x20 ADD ADD DUP2 DUP2 MSTORE POP POP PUSH1 0x9 DUP2 PUSH1 0x4 DUP2 MLOAD DUP2 LT PUSH2 0x2A9 JUMPI PUSH2 0x2A8 PUSH2 0xC73 JUMP JUMPDEST JUMPDEST PUSH1 0x20 MUL PUSH1 0x20 ADD ADD DUP2 DUP2 MSTORE POP POP PUSH0 PUSH0 SWAP1 POP PUSH0 PUSH1 0x1 DUP4 MLOAD PUSH2 0x2C8 SWAP2 SWAP1 PUSH2 0xCCD JUMP JUMPDEST SWAP1 POP JUMPDEST DUP1 DUP3 GT PUSH2 0x371 JUMPI PUSH0 PUSH1 0x2 DUP4 DUP4 PUSH2 0x2E1 SWAP2 SWAP1 PUSH2 0xCCD JUMP JUMPDEST PUSH2 0x2EB SWAP2 SWAP1 PUSH2 0xD2D JUMP JUMPDEST DUP4 PUSH2 0x2F6 SWAP2 SWAP1 PUSH2 0xD5D JUMP JUMPDEST SWAP1 POP DUP6 DUP5 DUP3 DUP2 MLOAD DUP2 LT PUSH2 0x30C JUMPI PUSH2 0x30B PUSH2 0xC73 JUMP JUMPDEST JUMPDEST PUSH1 0x20 MUL PUSH1 0x20 ADD ADD MLOAD SUB PUSH2 0x325 JUMPI DUP1 SWAP5 POP POP POP POP POP PUSH2 0x398 JUMP JUMPDEST DUP6 DUP5 DUP3 DUP2 MLOAD DUP2 LT PUSH2 0x339 JUMPI PUSH2 0x338 PUSH2 0xC73 JUMP JUMPDEST JUMPDEST PUSH1 0x20 MUL PUSH1 0x20 ADD ADD MLOAD LT ISZERO PUSH2 0x35B JUMPI PUSH1 0x1 DUP2 PUSH2 0x354 SWAP2 SWAP1 PUSH2 0xD5D JUMP JUMPDEST SWAP3 POP PUSH2 0x36B JUMP JUMPDEST PUSH1 0x1 DUP2 PUSH2 0x368 SWAP2 SWAP1 PUSH2 0xCCD JUMP JUMPDEST SWAP2 POP JUMPDEST POP PUSH2 0x2CB JUMP JUMPDEST PUSH32 0xFFFFFFFFFFFFFFFFFFFFFFFFFFFFFFFFFFFFFFFFFFFFFFFFFFFFFFFFFFFFFFFF SWAP4 POP POP POP POP JUMPDEST SWAP2 SWAP1 POP JUMP JUMPDEST PUSH1 0x2 DUP2 DUP2 SLOAD DUP2 LT PUSH2 0x3AC JUMPI PUSH0 DUP1 REVERT JUMPDEST SWAP1 PUSH0 MSTORE PUSH1 0x20 PUSH0 KECCAK256 ADD PUSH0 SWAP2 POP SLOAD SWAP1 PUSH2 0x100 EXP SWAP1 DIV PUSH20 0xFFFFFFFFFFFFFFFFFFFFFFFFFFFFFFFFFFFFFFFF AND DUP2 JUMP JUMPDEST PUSH1 0x60 PUSH0 PUSH1 0x4 PUSH8 0xFFFFFFFFFFFFFFFF DUP2 GT ISZERO PUSH2 0x3F6 JUMPI PUSH2 0x3F5 PUSH2 0xC46 JUMP JUMPDEST JUMPDEST PUSH1 0x40 MLOAD SWAP1 DUP1 DUP3 MSTORE DUP1 PUSH1 0x20 MUL PUSH1 0x20 ADD DUP3 ADD PUSH1 0x40 MSTORE DUP1 ISZERO PUSH2 0x424 JUMPI DUP2 PUSH1 0x20 ADD PUSH1 0x20 DUP3 MUL DUP1 CALLDATASIZE DUP4 CALLDATACOPY DUP1 DUP3 ADD SWAP2 POP POP SWAP1 POP JUMPDEST POP SWAP1 POP PUSH1 0x1 DUP2 PUSH0 DUP2 MLOAD DUP2 LT PUSH2 0x43C JUMPI PUSH2 0x43B PUSH2 0xC73 JUMP JUMPDEST JUMPDEST PUSH1 0x20 MUL PUSH1 0x20 ADD ADD DUP2 DUP2 MSTORE POP POP PUSH1 0x4 DUP2 PUSH1 0x1 DUP2 MLOAD DUP2 LT PUSH2 0x45E JUMPI PUSH2 0x45D PUSH2 0xC73 JUMP JUMPDEST JUMPDEST PUSH1 0x20 MUL PUSH1 0x20 ADD ADD DUP2 DUP2 MSTORE POP POP PUSH1 0x5 DUP2 PUSH1 0x2 DUP2 MLOAD DUP2 LT PUSH2 0x480 JUMPI PUSH2 0x47F PUSH2 0xC73 JUMP JUMPDEST JUMPDEST PUSH1 0x20 MUL PUSH1 0x20 ADD ADD DUP2 DUP2 MSTORE POP POP PUSH1 0x8 DUP2 PUSH1 0x3 DUP2 MLOAD DUP2 LT PUSH2 0x4A2 JUMPI PUSH2 0x4A1 PUSH2 0xC73 JUMP JUMPDEST JUMPDEST PUSH1 0x20 MUL PUSH1 0x20 ADD ADD DUP2 DUP2 MSTORE POP POP PUSH0 PUSH1 0x4 PUSH8 0xFFFFFFFFFFFFFFFF DUP2 GT ISZERO PUSH2 0x4CA JUMPI PUSH2 0x4C9 PUSH2 0xC46 JUMP JUMPDEST JUMPDEST PUSH1 0x40 MLOAD SWAP1 DUP1 DUP3 MSTORE DUP1 PUSH1 0x20 MUL PUSH1 0x20 ADD DUP3 ADD PUSH1 0x40 MSTORE DUP1 ISZERO PUSH2 0x4F8 JUMPI DUP2 PUSH1 0x20 ADD PUSH1 0x20 DUP3 MUL DUP1 CALLDATASIZE DUP4 CALLDATACOPY DUP1 DUP3 ADD SWAP2 POP POP SWAP1 POP JUMPDEST POP SWAP1 POP PUSH1 0x2 DUP2 PUSH0 DUP2 MLOAD DUP2 LT PUSH2 0x510 JUMPI PUSH2 0x50F PUSH2 0xC73 JUMP JUMPDEST JUMPDEST PUSH1 0x20 MUL PUSH1 0x20 ADD ADD DUP2 DUP2 MSTORE POP POP PUSH1 0x3 DUP2 PUSH1 0x1 DUP2 MLOAD DUP2 LT PUSH2 0x532 JUMPI PUSH2 0x531 PUSH2 0xC73 JUMP JUMPDEST JUMPDEST PUSH1 0x20 MUL PUSH1 0x20 ADD ADD DUP2 DUP2 MSTORE POP POP PUSH1 0x7 DUP2 PUSH1 0x2 DUP2 MLOAD DUP2 LT PUSH2 0x554 JUMPI PUSH2 0x553 PUSH2 0xC73 JUMP JUMPDEST JUMPDEST PUSH1 0x20 MUL PUSH1 0x20 ADD ADD DUP2 DUP2 MSTORE POP POP PUSH1 0x9 DUP2 PUSH1 0x3 DUP2 MLOAD DUP2 LT PUSH2 0x576 JUMPI PUSH2 0x575 PUSH2 0xC73 JUMP JUMPDEST JUMPDEST PUSH1 0x20 MUL PUSH1 0x20 ADD ADD DUP2 DUP2 MSTORE POP POP PUSH0 DUP2 MLOAD DUP4 MLOAD PUSH2 0x591 SWAP2 SWAP1 PUSH2 0xD5D JUMP JUMPDEST PUSH8 0xFFFFFFFFFFFFFFFF DUP2 GT ISZERO PUSH2 0x5AA JUMPI PUSH2 0x5A9 PUSH2 0xC46 JUMP JUMPDEST JUMPDEST PUSH1 0x40 MLOAD SWAP1 DUP1 DUP3 MSTORE DUP1 PUSH1 0x20 MUL PUSH1 0x20 ADD DUP3 ADD PUSH1 0x40 MSTORE DUP1 ISZERO PUSH2 0x5D8 JUMPI DUP2 PUSH1 0x20 ADD PUSH1 0x20 DUP3 MUL DUP1 CALLDATASIZE DUP4 CALLDATACOPY DUP1 DUP3 ADD SWAP2 POP POP SWAP1 POP JUMPDEST POP SWAP1 POP PUSH0 PUSH0 SWAP1 POP PUSH0 PUSH0 SWAP1 POP PUSH0 PUSH0 SWAP1 POP JUMPDEST DUP6 MLOAD DUP3 LT DUP1 ISZERO PUSH2 0x5F8 JUMPI POP DUP5 MLOAD DUP2 LT JUMPDEST ISZERO PUSH2 0x6F0 JUMPI DUP5 DUP2 DUP2 MLOAD DUP2 LT PUSH2 0x610 JUMPI PUSH2 0x60F PUSH2 0xC73 JUMP JUMPDEST JUMPDEST PUSH1 0x20 MUL PUSH1 0x20 ADD ADD MLOAD DUP7 DUP4 DUP2 MLOAD DUP2 LT PUSH2 0x62B JUMPI PUSH2 0x62A PUSH2 0xC73 JUMP JUMPDEST JUMPDEST PUSH1 0x20 MUL PUSH1 0x20 ADD ADD MLOAD LT ISZERO PUSH2 0x694 JUMPI DUP6 DUP3 DUP2 MLOAD DUP2 LT PUSH2 0x64C JUMPI PUSH2 0x64B PUSH2 0xC73 JUMP JUMPDEST JUMPDEST PUSH1 0x20 MUL PUSH1 0x20 ADD ADD MLOAD DUP5 DUP5 DUP2 MLOAD DUP2 LT PUSH2 0x667 JUMPI PUSH2 0x666 PUSH2 0xC73 JUMP JUMPDEST JUMPDEST PUSH1 0x20 MUL PUSH1 0x20 ADD ADD DUP2 DUP2 MSTORE POP POP DUP2 DUP1 PUSH2 0x67E SWAP1 PUSH2 0xD90 JUMP JUMPDEST SWAP3 POP POP DUP3 DUP1 PUSH2 0x68C SWAP1 PUSH2 0xD90 JUMP JUMPDEST SWAP4 POP POP PUSH2 0x6EB JUMP JUMPDEST DUP5 DUP2 DUP2 MLOAD DUP2 LT PUSH2 0x6A7 JUMPI PUSH2 0x6A6 PUSH2 0xC73 JUMP JUMPDEST JUMPDEST PUSH1 0x20 MUL PUSH1 0x20 ADD ADD MLOAD DUP5 DUP5 DUP2 MLOAD DUP2 LT PUSH2 0x6C2 JUMPI PUSH2 0x6C1 PUSH2 0xC73 JUMP JUMPDEST JUMPDEST PUSH1 0x20 MUL PUSH1 0x20 ADD ADD DUP2 DUP2 MSTORE POP POP DUP1 DUP1 PUSH2 0x6D9 SWAP1 PUSH2 0xD90 JUMP JUMPDEST SWAP2 POP POP DUP3 DUP1 PUSH2 0x6E7 SWAP1 PUSH2 0xD90 JUMP JUMPDEST SWAP4 POP POP JUMPDEST PUSH2 0x5E8 JUMP JUMPDEST JUMPDEST DUP6 MLOAD DUP3 LT ISZERO PUSH2 0x755 JUMPI DUP6 DUP3 DUP2 MLOAD DUP2 LT PUSH2 0x70D JUMPI PUSH2 0x70C PUSH2 0xC73 JUMP JUMPDEST JUMPDEST PUSH1 0x20 MUL PUSH1 0x20 ADD ADD MLOAD DUP5 DUP5 DUP2 MLOAD DUP2 LT PUSH2 0x728 JUMPI PUSH2 0x727 PUSH2 0xC73 JUMP JUMPDEST JUMPDEST PUSH1 0x20 MUL PUSH1 0x20 ADD ADD DUP2 DUP2 MSTORE POP POP DUP2 DUP1 PUSH2 0x73F SWAP1 PUSH2 0xD90 JUMP JUMPDEST SWAP3 POP POP DUP3 DUP1 PUSH2 0x74D SWAP1 PUSH2 0xD90 JUMP JUMPDEST SWAP4 POP POP PUSH2 0x6F1 JUMP JUMPDEST JUMPDEST DUP5 MLOAD DUP2 LT ISZERO PUSH2 0x7BA JUMPI DUP5 DUP2 DUP2 MLOAD DUP2 LT PUSH2 0x772 JUMPI PUSH2 0x771 PUSH2 0xC73 JUMP JUMPDEST JUMPDEST PUSH1 0x20 MUL PUSH1 0x20 ADD ADD MLOAD DUP5 DUP5 DUP2 MLOAD DUP2 LT PUSH2 0x78D JUMPI PUSH2 0x78C PUSH2 0xC73 JUMP JUMPDEST JUMPDEST PUSH1 0x20 MUL PUSH1 0x20 ADD ADD DUP2 DUP2 MSTORE POP POP DUP1 DUP1 PUSH2 0x7A4 SWAP1 PUSH2 0xD90 JUMP JUMPDEST SWAP2 POP POP DUP3 DUP1 PUSH2 0x7B2 SWAP1 PUSH2 0xD90 JUMP JUMPDEST SWAP4 POP POP PUSH2 0x756 JUMP JUMPDEST DUP4 SWAP7 POP POP POP POP POP POP POP SWAP1 JUMP JUMPDEST PUSH0 PUSH0 PUSH0 DUP4 PUSH20 0xFFFFFFFFFFFFFFFFFFFFFFFFFFFFFFFFFFFFFFFF AND PUSH20 0xFFFFFFFFFFFFFFFFFFFFFFFFFFFFFFFFFFFFFFFF AND DUP2 MSTORE PUSH1 0x20 ADD SWAP1 DUP2 MSTORE PUSH1 0x20 ADD PUSH0 KECCAK256 SLOAD SUB PUSH2 0x86A JUMPI PUSH1 0x1 DUP2 SWAP1 DUP1 PUSH1 0x1 DUP2 SLOAD ADD DUP1 DUP3 SSTORE DUP1 SWAP2 POP POP PUSH1 0x1 SWAP1 SUB SWAP1 PUSH0 MSTORE PUSH1 0x20 PUSH0 KECCAK256 ADD PUSH0 SWAP1 SWAP2 SWAP1 SWAP2 SWAP1 SWAP2 PUSH2 0x100 EXP DUP2 SLOAD DUP2 PUSH20 0xFFFFFFFFFFFFFFFFFFFFFFFFFFFFFFFFFFFFFFFF MUL NOT AND SWAP1 DUP4 PUSH20 0xFFFFFFFFFFFFFFFFFFFFFFFFFFFFFFFFFFFFFFFF AND MUL OR SWAP1 SSTORE POP JUMPDEST PUSH1 0x1 PUSH0 PUSH0 DUP4 PUSH20 0xFFFFFFFFFFFFFFFFFFFFFFFFFFFFFFFFFFFFFFFF AND PUSH20 0xFFFFFFFFFFFFFFFFFFFFFFFFFFFFFFFFFFFFFFFF AND DUP2 MSTORE PUSH1 0x20 ADD SWAP1 DUP2 MSTORE PUSH1 0x20 ADD PUSH0 KECCAK256 PUSH0 DUP3 DUP3 SLOAD PUSH2 0x8B6 SWAP2 SWAP1 PUSH2 0xD5D JUMP JUMPDEST SWAP3 POP POP DUP2 SWAP1 SSTORE POP POP JUMP JUMPDEST PUSH1 0x1 DUP2 DUP2 SLOAD DUP2 LT PUSH2 0x8CF JUMPI PUSH0 DUP1 REVERT JUMPDEST SWAP1 PUSH0 MSTORE PUSH1 0x20 PUSH0 KECCAK256 ADD PUSH0 SWAP2 POP SLOAD SWAP1 PUSH2 0x100 EXP SWAP1 DIV PUSH20 0xFFFFFFFFFFFFFFFFFFFFFFFFFFFFFFFFFFFFFFFF AND DUP2 JUMP JUMPDEST PUSH0 PUSH0 PUSH0 DUP4 PUSH20 0xFFFFFFFFFFFFFFFFFFFFFFFFFFFFFFFFFFFFFFFF AND PUSH20 0xFFFFFFFFFFFFFFFFFFFFFFFFFFFFFFFFFFFFFFFF AND DUP2 MSTORE PUSH1 0x20 ADD SWAP1 DUP2 MSTORE PUSH1 0x20 ADD PUSH0 KECCAK256 SLOAD SWAP1 POP SWAP2 SWAP1 POP JUMP JUMPDEST PUSH0 PUSH0 SWAP1 POP JUMPDEST PUSH1 0x1 DUP1 SLOAD SWAP1 POP DUP2 LT ISZERO PUSH2 0x9DB JUMPI PUSH0 PUSH0 PUSH0 PUSH1 0x1 DUP5 DUP2 SLOAD DUP2 LT PUSH2 0x969 JUMPI PUSH2 0x968 PUSH2 0xC73 JUMP JUMPDEST JUMPDEST SWAP1 PUSH0 MSTORE PUSH1 0x20 PUSH0 KECCAK256 ADD PUSH0 SWAP1 SLOAD SWAP1 PUSH2 0x100 EXP SWAP1 DIV PUSH20 0xFFFFFFFFFFFFFFFFFFFFFFFFFFFFFFFFFFFFFFFF AND PUSH20 0xFFFFFFFFFFFFFFFFFFFFFFFFFFFFFFFFFFFFFFFF AND PUSH20 0xFFFFFFFFFFFFFFFFFFFFFFFFFFFFFFFFFFFFFFFF AND DUP2 MSTORE PUSH1 0x20 ADD SWAP1 DUP2 MSTORE PUSH1 0x20 ADD PUSH0 KECCAK256 DUP2 SWAP1 SSTORE POP DUP1 DUP1 PUSH1 0x1 ADD SWAP2 POP POP PUSH2 0x945 JUMP JUMPDEST POP PUSH1 0x1 PUSH0 PUSH2 0x9E9 SWAP2 SWAP1 PUSH2 0x9FF JUMP JUMPDEST JUMP JUMPDEST PUSH0 PUSH1 0x20 MSTORE DUP1 PUSH0 MSTORE PUSH1 0x40 PUSH0 KECCAK256 PUSH0 SWAP2 POP SWAP1 POP SLOAD DUP2 JUMP JUMPDEST POP DUP1 SLOAD PUSH0 DUP3 SSTORE SWAP1 PUSH0 MSTORE PUSH1 0x20 PUSH0 KECCAK256 SWAP1 DUP2 ADD SWAP1 PUSH2 0xA1A SWAP2 SWAP1 PUSH2 0xA1D JUMP JUMPDEST POP JUMP JUMPDEST JUMPDEST DUP1 DUP3 GT ISZERO PUSH2 0xA34 JUMPI PUSH0 DUP2 PUSH0 SWAP1 SSTORE POP PUSH1 0x1 ADD PUSH2 0xA1E JUMP JUMPDEST POP SWAP1 JUMP JUMPDEST PUSH0 PUSH0 REVERT JUMPDEST PUSH0 DUP2 SWAP1 POP SWAP2 SWAP1 POP JUMP JUMPDEST PUSH2 0xA4E DUP2 PUSH2 0xA3C JUMP JUMPDEST DUP2 EQ PUSH2 0xA58 JUMPI PUSH0 PUSH0 REVERT JUMPDEST POP JUMP JUMPDEST PUSH0 DUP2 CALLDATALOAD SWAP1 POP PUSH2 0xA69 DUP2 PUSH2 0xA45 JUMP JUMPDEST SWAP3 SWAP2 POP POP JUMP JUMPDEST PUSH0 PUSH1 0x20 DUP3 DUP5 SUB SLT ISZERO PUSH2 0xA84 JUMPI PUSH2 0xA83 PUSH2 0xA38 JUMP JUMPDEST JUMPDEST PUSH0 PUSH2 0xA91 DUP5 DUP3 DUP6 ADD PUSH2 0xA5B JUMP JUMPDEST SWAP2 POP POP SWAP3 SWAP2 POP POP JUMP JUMPDEST PUSH2 0xAA3 DUP2 PUSH2 0xA3C JUMP JUMPDEST DUP3 MSTORE POP POP JUMP JUMPDEST PUSH0 PUSH1 0x20 DUP3 ADD SWAP1 POP PUSH2 0xABC PUSH0 DUP4 ADD DUP5 PUSH2 0xA9A JUMP JUMPDEST SWAP3 SWAP2 POP POP JUMP JUMPDEST PUSH0 PUSH20 0xFFFFFFFFFFFFFFFFFFFFFFFFFFFFFFFFFFFFFFFF DUP3 AND SWAP1 POP SWAP2 SWAP1 POP JUMP JUMPDEST PUSH0 PUSH2 0xAEB DUP3 PUSH2 0xAC2 JUMP JUMPDEST SWAP1 POP SWAP2 SWAP1 POP JUMP JUMPDEST PUSH2 0xAFB DUP2 PUSH2 0xAE1 JUMP JUMPDEST DUP3 MSTORE POP POP JUMP JUMPDEST PUSH0 PUSH1 0x20 DUP3 ADD SWAP1 POP PUSH2 0xB14 PUSH0 DUP4 ADD DUP5 PUSH2 0xAF2 JUMP JUMPDEST SWAP3 SWAP2 POP POP JUMP JUMPDEST PUSH0 DUP2 MLOAD SWAP1 POP SWAP2 SWAP1 POP JUMP JUMPDEST PUSH0 DUP3 DUP3 MSTORE PUSH1 0x20 DUP3 ADD SWAP1 POP SWAP3 SWAP2 POP POP JUMP JUMPDEST PUSH0 DUP2 SWAP1 POP PUSH1 0x20 DUP3 ADD SWAP1 POP SWAP2 SWAP1 POP JUMP JUMPDEST PUSH2 0xB4C DUP2 PUSH2 0xA3C JUMP JUMPDEST DUP3 MSTORE POP POP JUMP JUMPDEST PUSH0 PUSH2 0xB5D DUP4 DUP4 PUSH2 0xB43 JUMP JUMPDEST PUSH1 0x20 DUP4 ADD SWAP1 POP SWAP3 SWAP2 POP POP JUMP JUMPDEST PUSH0 PUSH1 0x20 DUP3 ADD SWAP1 POP SWAP2 SWAP1 POP JUMP JUMPDEST PUSH0 PUSH2 0xB7F DUP3 PUSH2 0xB1A JUMP JUMPDEST PUSH2 0xB89 DUP2 DUP6 PUSH2 0xB24 JUMP JUMPDEST SWAP4 POP PUSH2 0xB94 DUP4 PUSH2 0xB34 JUMP JUMPDEST DUP1 PUSH0 JUMPDEST DUP4 DUP2 LT ISZERO PUSH2 0xBC4 JUMPI DUP2 MLOAD PUSH2 0xBAB DUP9 DUP3 PUSH2 0xB52 JUMP JUMPDEST SWAP8 POP PUSH2 0xBB6 DUP4 PUSH2 0xB69 JUMP JUMPDEST SWAP3 POP POP PUSH1 0x1 DUP2 ADD SWAP1 POP PUSH2 0xB97 JUMP JUMPDEST POP DUP6 SWAP4 POP POP POP POP SWAP3 SWAP2 POP POP JUMP JUMPDEST PUSH0 PUSH1 0x20 DUP3 ADD SWAP1 POP DUP2 DUP2 SUB PUSH0 DUP4 ADD MSTORE PUSH2 0xBE9 DUP2 DUP5 PUSH2 0xB75 JUMP JUMPDEST SWAP1 POP SWAP3 SWAP2 POP POP JUMP JUMPDEST PUSH2 0xBFA DUP2 PUSH2 0xAE1 JUMP JUMPDEST DUP2 EQ PUSH2 0xC04 JUMPI PUSH0 PUSH0 REVERT JUMPDEST POP JUMP JUMPDEST PUSH0 DUP2 CALLDATALOAD SWAP1 POP PUSH2 0xC15 DUP2 PUSH2 0xBF1 JUMP JUMPDEST SWAP3 SWAP2 POP POP JUMP JUMPDEST PUSH0 PUSH1 0x20 DUP3 DUP5 SUB SLT ISZERO PUSH2 0xC30 JUMPI PUSH2 0xC2F PUSH2 0xA38 JUMP JUMPDEST JUMPDEST PUSH0 PUSH2 0xC3D DUP5 DUP3 DUP6 ADD PUSH2 0xC07 JUMP JUMPDEST SWAP2 POP POP SWAP3 SWAP2 POP POP JUMP JUMPDEST PUSH32 0x4E487B7100000000000000000000000000000000000000000000000000000000 PUSH0 MSTORE PUSH1 0x41 PUSH1 0x4 MSTORE PUSH1 0x24 PUSH0 REVERT JUMPDEST PUSH32 0x4E487B7100000000000000000000000000000000000000000000000000000000 PUSH0 MSTORE PUSH1 0x32 PUSH1 0x4 MSTORE PUSH1 0x24 PUSH0 REVERT JUMPDEST PUSH32 0x4E487B7100000000000000000000000000000000000000000000000000000000 PUSH0 MSTORE PUSH1 0x11 PUSH1 0x4 MSTORE PUSH1 0x24 PUSH0 REVERT JUMPDEST PUSH0 PUSH2 0xCD7 DUP3 PUSH2 0xA3C JUMP JUMPDEST SWAP2 POP PUSH2 0xCE2 DUP4 PUSH2 0xA3C JUMP JUMPDEST SWAP3 POP DUP3 DUP3 SUB SWAP1 POP DUP2 DUP2 GT ISZERO PUSH2 0xCFA JUMPI PUSH2 0xCF9 PUSH2 0xCA0 JUMP JUMPDEST JUMPDEST SWAP3 SWAP2 POP POP JUMP JUMPDEST PUSH32 0x4E487B7100000000000000000000000000000000000000000000000000000000 PUSH0 MSTORE PUSH1 0x12 PUSH1 0x4 MSTORE PUSH1 0x24 PUSH0 REVERT JUMPDEST PUSH0 PUSH2 0xD37 DUP3 PUSH2 0xA3C JUMP JUMPDEST SWAP2 POP PUSH2 0xD42 DUP4 PUSH2 0xA3C JUMP JUMPDEST SWAP3 POP DUP3 PUSH2 0xD52 JUMPI PUSH2 0xD51 PUSH2 0xD00 JUMP JUMPDEST JUMPDEST DUP3 DUP3 DIV SWAP1 POP SWAP3 SWAP2 POP POP JUMP JUMPDEST PUSH0 PUSH2 0xD67 DUP3 PUSH2 0xA3C JUMP JUMPDEST SWAP2 POP PUSH2 0xD72 DUP4 PUSH2 0xA3C JUMP JUMPDEST SWAP3 POP DUP3 DUP3 ADD SWAP1 POP DUP1 DUP3 GT ISZERO PUSH2 0xD8A JUMPI PUSH2 0xD89 PUSH2 0xCA0 JUMP JUMPDEST JUMPDEST SWAP3 SWAP2 POP POP JUMP JUMPDEST PUSH0 PUSH2 0xD9A DUP3 PUSH2 0xA3C JUMP JUMPDEST SWAP2 POP PUSH32 0xFFFFFFFFFFFFFFFFFFFFFFFFFFFFFFFFFFFFFFFFFFFFFFFFFFFFFFFFFFFFFFFF DUP3 SUB PUSH2 0xDCC JUMPI PUSH2 0xDCB PUSH2 0xCA0 JUMP JUMPDEST JUMPDEST PUSH1 0x1 DUP3 ADD SWAP1 POP SWAP2 SWAP1 POP JUMP INVALID LOG2 PUSH5 0x6970667358 0x22 SLT KECCAK256 DUP13 EXTCODECOPY 0xD8 CHAINID GASLIMIT 0xC1 SELFBALANCE CALLVALUE CREATE2 RETURNDATASIZE 0xC7 0xBF SLT PUSH20 0xBE06181A2C80EDBD04DDBE834F0C70A8E2CB6473 PUSH16 0x6C634300081E00330000000000000000 "
				},
				"gasEstimates": {
					"creation": {
						"codeDepositCost": "719400",
						"executionCost": "751",
						"totalCost": "720151"
					},
					"external": {
						"addrList(uint256)": "4944",
						"addrList1(uint256)": "4967",
						"arrConSort()": "infinite",
						"getValue(uint256)": "infinite",
						"getVotes(address)": "2850",
						"resetVotes()": "infinite",
						"vote(address)": "infinite",
						"votes(address)": "2867"
					}
				},
				"methodIdentifiers": {
					"addrList(uint256)": "80402564",
					"addrList1(uint256)": "15cb9ff7",
					"arrConSort()": "2e9eb7c6",
					"getValue(uint256)": "0ff4c916",
					"getVotes(address)": "9ab24eb0",
					"resetVotes()": "b9830ff1",
					"vote(address)": "6dd7d8ea",
					"votes(address)": "d8bff5a5"
				}
			},
			"storageLayout": {
				"storage": [
					{
						"astId": 5,
						"contract": "constracts/task1/Voting.sol:Voting",
						"label": "votes",
						"offset": 0,
						"slot": "0",
						"type": "t_mapping(t_address,t_uint256)"
					},
					{
						"astId": 8,
						"contract": "constracts/task1/Voting.sol:Voting",
						"label": "addrList",
						"offset": 0,
						"slot": "1",
						"type": "t_array(t_address)dyn_storage"
					},
					{
						"astId": 11,
						"contract": "constracts/task1/Voting.sol:Voting",
						"label": "addrList1",
						"offset": 0,
						"slot": "2",
						"type": "t_array(t_address)dyn_storage"
					}
				],
				"types": {
					"t_address": {
						"encoding": "inplace",
						"label": "address",
						"numberOfBytes": "20"
					},
					"t_array(t_address)dyn_storage": {
						"base": "t_address",
						"encoding": "dynamic_array",
						"label": "address[]",
						"numberOfBytes": "32"
					},
					"t_mapping(t_address,t_uint256)": {
						"encoding": "mapping",
						"key": "t_address",
						"label": "mapping(address => uint256)",
						"numberOfBytes": "32",
						"value": "t_uint256"
					},
					"t_uint256": {
						"encoding": "inplace",
						"label": "uint256",
						"numberOfBytes": "32"
					}
				}
			},
			"userdoc": {
				"kind": "user",
				"methods": {},
				"version": 1
			}
		}
	}
}