{
	"data": {
		"bytecode": {
			"linkReferences": {},
			"object": "608060405260015f556040518060400160405280600381526020017f61626300000000000000000000000000000000000000000000000000000000008152506001908161004c9190610415565b50600160025f6101000a81548160ff021916908315150217905550735b38da6a701c568545dcfcb03fcb875f56beddc4600260016101000a81548173ffffffffffffffffffffffffffffffffffffffff021916908373ffffffffffffffffffffffffffffffffffffffff1602179055506040518060400160405280600781526020017f617364617373640000000000000000000000000000000000000000000000000081525060049081610100919061053c565b50600667ffffffffffffffff81111561011c5761011b6101e2565b5b60405190808252806020026020018201604052801561014a5781602001602082028036833780820191505090505b50600c9080519060200190610160929190610172565b5034801561016c575f5ffd5b5061060b565b828054828255905f5260205f209081019282156101ac579160200282015b828111156101ab578251825591602001919060010190610190565b5b5090506101b991906101bd565b5090565b5b808211156101d4575f815f9055506001016101be565b5090565b5f81519050919050565b7f4e487b71000000000000000000000000000000000000000000000000000000005f52604160045260245ffd5b7f4e487b71000000000000000000000000000000000000000000000000000000005f52602260045260245ffd5b5f600282049050600182168061025357607f821691505b6020821081036102665761026561020f565b5b50919050565b5f819050815f5260205f209050919050565b5f6020601f8301049050919050565b5f82821b905092915050565b5f600883026102c87fffffffffffffffffffffffffffffffffffffffffffffffffffffffffffffffff8261028d565b6102d2868361028d565b95508019841693508086168417925050509392505050565b5f819050919050565b5f819050919050565b5f61031661031161030c846102ea565b6102f3565b6102ea565b9050919050565b5f819050919050565b61032f836102fc565b61034361033b8261031d565b848454610299565b825550505050565b5f5f905090565b61035a61034b565b610365818484610326565b505050565b5b818110156103885761037d5f82610352565b60018101905061036b565b5050565b601f8211156103cd5761039e8161026c565b6103a78461027e565b810160208510156103b6578190505b6103ca6103c28561027e565b83018261036a565b50505b505050565b5f82821c905092915050565b5f6103ed5f19846008026103d2565b1980831691505092915050565b5f61040583836103de565b9150826002028217905092915050565b61041e826101d8565b67ffffffffffffffff811115610437576104366101e2565b5b610441825461023c565b61044c82828561038c565b5f60209050601f83116001811461047d575f841561046b578287015190505b61047585826103fa565b8655506104dc565b601f19841661048b8661026c565b5f5b828110156104b25784890151825560018201915060208501945060208101905061048d565b868310156104cf57848901516104cb601f8916826103de565b8355505b6001600288020188555050505b505050505050565b5f819050815f5260205f209050919050565b601f82111561053757610508816104e4565b6105118461027e565b81016020851015610520578190505b61053461052c8561027e565b83018261036a565b50505b505050565b610545826101d8565b67ffffffffffffffff81111561055e5761055d6101e2565b5b610568825461023c565b6105738282856104f6565b5f60209050601f8311600181146105a4575f8415610592578287015190505b61059c85826103fa565b865550610603565b601f1984166105b2866104e4565b5f5b828110156105d9578489015182556001820191506020850194506020810190506105b4565b868310156105f657848901516105f2601f8916826103de565b8355505b6001600288020188555050505b505050505050565b61061c806106185f395ff3fe608060405234801561000f575f5ffd5b5060043610610034575f3560e01c80632e9eb7c614610038578063b64e022614610056575b5f5ffd5b610040610086565b60405161004d919061047d565b60405180910390f35b610070600480360381019061006b91906104ff565b61014c565b60405161007d919061047d565b60405180910390f35b5f6040518060600160405280600160ff168152602001600260ff168152602001600360ff1681525060089060036100be929190610354565b50600267ffffffffffffffff8111156100da576100d961054a565b5b6040519080825280602002602001820160405280156101085781602001602082028036833780820191505090505b50600b908051906020019061011e929190610399565b506001600b5f8154811061013557610134610577565b5b905f5260205f200181905550600b80549050905090565b5f5f600367ffffffffffffffff8111156101695761016861054a565b5b6040519080825280602002602001820160405280156101975781602001602082028036833780820191505090505b5090506001815f815181106101af576101ae610577565b5b6020026020010181815250505f84845f9087879050926101d1939291906105ac565b808060200260200160405190810160405280939291908181526020018383602002808284375f81840152601f19601f8201169050808301925050505050505090508051505f8290508051505f600b80548060200260200160405190810160405280929190818152602001828054801561026757602002820191905f5260205f20905b815481526020019060010190808311610253575b505050505090506001815f8151811061028357610282610577565b5b6020026020010181815250505f600b90506001815f815481106102a9576102a8610577565b5b905f5260205f20018190555087875f9080926102c7939291906105ac565b600b91906102d69291906103e4565b5082600b90805190602001906102ed929190610399565b50365f89899150915081819050505f8a8a808060200260200160405190810160405280939291908181526020018383602002808284375f81840152601f19601f82011690508083019250505050505050905080515085519850505050505050505092915050565b8260038101928215610388579160200282015b82811115610387578251829060ff16905591602001919060010190610367565b5b509050610395919061042f565b5090565b828054828255905f5260205f209081019282156103d3579160200282015b828111156103d25782518255916020019190600101906103b7565b5b5090506103e0919061044a565b5090565b828054828255905f5260205f2090810192821561041e579160200282015b8281111561041d578235825591602001919060010190610402565b5b50905061042b919061044a565b5090565b5b80821115610446575f815f905550600101610430565b5090565b5b80821115610461575f815f90555060010161044b565b5090565b5f819050919050565b61047781610465565b82525050565b5f6020820190506104905f83018461046e565b92915050565b5f5ffd5b5f5ffd5b5f5ffd5b5f5ffd5b5f5ffd5b5f5f83601f8401126104bf576104be61049e565b5b8235905067ffffffffffffffff8111156104dc576104db6104a2565b5b6020830191508360208202830111156104f8576104f76104a6565b5b9250929050565b5f5f6020838503121561051557610514610496565b5b5f83013567ffffffffffffffff8111156105325761053161049a565b5b61053e858286016104aa565b92509250509250929050565b7f4e487b71000000000000000000000000000000000000000000000000000000005f52604160045260245ffd5b7f4e487b71000000000000000000000000000000000000000000000000000000005f52603260045260245ffd5b5f5ffd5b5f5ffd5b5f5f858511156105bf576105be6105a4565b5b838611156105d0576105cf6105a8565b5b602085028301915084860390509450949250505056fea2646970667358221220d33ce62788b254547732f30a69d9efd4eb45660a24952cae83e931f245ddab2264736f6c634300081e0033",
			"opcodes": "PUSH1 0x80 PUSH1 0x40 MSTORE PUSH1 0x1 PUSH0 SSTORE PUSH1 0x40 MLOAD DUP1 PUSH1 0x40 ADD PUSH1 0x40 MSTORE DUP1 PUSH1 0x3 DUP2 MSTORE PUSH1 0x20 ADD PUSH32 0x6162630000000000000000000000000000000000000000000000000000000000 DUP2 MSTORE POP PUSH1 0x1 SWAP1 DUP2 PUSH2 0x4C SWAP2 SWAP1 PUSH2 0x415 JUMP JUMPDEST POP PUSH1 0x1 PUSH1 0x2 PUSH0 PUSH2 0x100 EXP DUP2 SLOAD DUP2 PUSH1 0xFF MUL NOT AND SWAP1 DUP4 ISZERO ISZERO MUL OR SWAP1 SSTORE POP PUSH20 0x5B38DA6A701C568545DCFCB03FCB875F56BEDDC4 PUSH1 0x2 PUSH1 0x1 PUSH2 0x100 EXP DUP2 SLOAD DUP2 PUSH20 0xFFFFFFFFFFFFFFFFFFFFFFFFFFFFFFFFFFFFFFFF MUL NOT AND SWAP1 DUP4 PUSH20 0xFFFFFFFFFFFFFFFFFFFFFFFFFFFFFFFFFFFFFFFF AND MUL OR SWAP1 SSTORE POP PUSH1 0x40 MLOAD DUP1 PUSH1 0x40 ADD PUSH1 0x40 MSTORE DUP1 PUSH1 0x7 DUP2 MSTORE PUSH1 0x20 ADD PUSH32 0x6173646173736400000000000000000000000000000000000000000000000000 DUP2 MSTORE POP PUSH1 0x4 SWAP1 DUP2 PUSH2 0x100 SWAP2 SWAP1 PUSH2 0x53C JUMP JUMPDEST POP PUSH1 0x6 PUSH8 0xFFFFFFFFFFFFFFFF DUP2 GT ISZERO PUSH2 0x11C JUMPI PUSH2 0x11B PUSH2 0x1E2 JUMP JUMPDEST JUMPDEST PUSH1 0x40 MLOAD SWAP1 DUP1 DUP3 MSTORE DUP1 PUSH1 0x20 MUL PUSH1 0x20 ADD DUP3 ADD PUSH1 0x40 MSTORE DUP1 ISZERO PUSH2 0x14A JUMPI DUP2 PUSH1 0x20 ADD PUSH1 0x20 DUP3 MUL DUP1 CALLDATASIZE DUP4 CALLDATACOPY DUP1 DUP3 ADD SWAP2 POP POP SWAP1 POP JUMPDEST POP PUSH1 0xC SWAP1 DUP1 MLOAD SWAP1 PUSH1 0x20 ADD SWAP1 PUSH2 0x160 SWAP3 SWAP2 SWAP1 PUSH2 0x172 JUMP JUMPDEST POP CALLVALUE DUP1 ISZERO PUSH2 0x16C JUMPI PUSH0 PUSH0 REVERT JUMPDEST POP PUSH2 0x60B JUMP JUMPDEST DUP3 DUP1 SLOAD DUP3 DUP3 SSTORE SWAP1 PUSH0 MSTORE PUSH1 0x20 PUSH0 KECCAK256 SWAP1 DUP2 ADD SWAP3 DUP3 ISZERO PUSH2 0x1AC JUMPI SWAP2 PUSH1 0x20 MUL DUP3 ADD JUMPDEST DUP3 DUP2 GT ISZERO PUSH2 0x1AB JUMPI DUP3 MLOAD DUP3 SSTORE SWAP2 PUSH1 0x20 ADD SWAP2 SWAP1 PUSH1 0x1 ADD SWAP1 PUSH2 0x190 JUMP JUMPDEST JUMPDEST POP SWAP1 POP PUSH2 0x1B9 SWAP2 SWAP1 PUSH2 0x1BD JUMP JUMPDEST POP SWAP1 JUMP JUMPDEST JUMPDEST DUP1 DUP3 GT ISZERO PUSH2 0x1D4 JUMPI PUSH0 DUP2 PUSH0 SWAP1 SSTORE POP PUSH1 0x1 ADD PUSH2 0x1BE JUMP JUMPDEST POP SWAP1 JUMP JUMPDEST PUSH0 DUP2 MLOAD SWAP1 POP SWAP2 SWAP1 POP JUMP JUMPDEST PUSH32 0x4E487B7100000000000000000000000000000000000000000000000000000000 PUSH0 MSTORE PUSH1 0x41 PUSH1 0x4 MSTORE PUSH1 0x24 PUSH0 REVERT JUMPDEST PUSH32 0x4E487B7100000000000000000000000000000000000000000000000000000000 PUSH0 MSTORE PUSH1 0x22 PUSH1 0x4 MSTORE PUSH1 0x24 PUSH0 REVERT JUMPDEST PUSH0 PUSH1 0x2 DUP3 DIV SWAP1 POP PUSH1 0x1 DUP3 AND DUP1 PUSH2 0x253 JUMPI PUSH1 0x7F DUP3 AND SWAP2 POP JUMPDEST PUSH1 0x20 DUP3 LT DUP2 SUB PUSH2 0x266 JUMPI PUSH2 0x265 PUSH2 0x20F JUMP JUMPDEST JUMPDEST POP SWAP2 SWAP1 POP JUMP JUMPDEST PUSH0 DUP2 SWAP1 POP DUP2 PUSH0 MSTORE PUSH1 0x20 PUSH0 KECCAK256 SWAP1 POP SWAP2 SWAP1 POP JUMP JUMPDEST PUSH0 PUSH1 0x20 PUSH1 0x1F DUP4 ADD DIV SWAP1 POP SWAP2 SWAP1 POP JUMP JUMPDEST PUSH0 DUP3 DUP3 SHL SWAP1 POP SWAP3 SWAP2 POP POP JUMP JUMPDEST PUSH0 PUSH1 0x8 DUP4 MUL PUSH2 0x2C8 PUSH32 0xFFFFFFFFFFFFFFFFFFFFFFFFFFFFFFFFFFFFFFFFFFFFFFFFFFFFFFFFFFFFFFFF DUP3 PUSH2 0x28D JUMP JUMPDEST PUSH2 0x2D2 DUP7 DUP4 PUSH2 0x28D JUMP JUMPDEST SWAP6 POP DUP1 NOT DUP5 AND SWAP4 POP DUP1 DUP7 AND DUP5 OR SWAP3 POP POP POP SWAP4 SWAP3 POP POP POP JUMP JUMPDEST PUSH0 DUP2 SWAP1 POP SWAP2 SWAP1 POP JUMP JUMPDEST PUSH0 DUP2 SWAP1 POP SWAP2 SWAP1 POP JUMP JUMPDEST PUSH0 PUSH2 0x316 PUSH2 0x311 PUSH2 0x30C DUP5 PUSH2 0x2EA JUMP JUMPDEST PUSH2 0x2F3 JUMP JUMPDEST PUSH2 0x2EA JUMP JUMPDEST SWAP1 POP SWAP2 SWAP1 POP JUMP JUMPDEST PUSH0 DUP2 SWAP1 POP SWAP2 SWAP1 POP JUMP JUMPDEST PUSH2 0x32F DUP4 PUSH2 0x2FC JUMP JUMPDEST PUSH2 0x343 PUSH2 0x33B DUP3 PUSH2 0x31D JUMP JUMPDEST DUP5 DUP5 SLOAD PUSH2 0x299 JUMP JUMPDEST DUP3 SSTORE POP POP POP POP JUMP JUMPDEST PUSH0 PUSH0 SWAP1 POP SWAP1 JUMP JUMPDEST PUSH2 0x35A PUSH2 0x34B JUMP JUMPDEST PUSH2 0x365 DUP2 DUP5 DUP5 PUSH2 0x326 JUMP JUMPDEST POP POP POP JUMP JUMPDEST JUMPDEST DUP2 DUP2 LT ISZERO PUSH2 0x388 JUMPI PUSH2 0x37D PUSH0 DUP3 PUSH2 0x352 JUMP JUMPDEST PUSH1 0x1 DUP2 ADD SWAP1 POP PUSH2 0x36B JUMP JUMPDEST POP POP JUMP JUMPDEST PUSH1 0x1F DUP3 GT ISZERO PUSH2 0x3CD JUMPI PUSH2 0x39E DUP2 PUSH2 0x26C JUMP JUMPDEST PUSH2 0x3A7 DUP5 PUSH2 0x27E JUMP JUMPDEST DUP2 ADD PUSH1 0x20 DUP6 LT ISZERO PUSH2 0x3B6 JUMPI DUP2 SWAP1 POP JUMPDEST PUSH2 0x3CA PUSH2 0x3C2 DUP6 PUSH2 0x27E JUMP JUMPDEST DUP4 ADD DUP3 PUSH2 0x36A JUMP JUMPDEST POP POP JUMPDEST POP POP POP JUMP JUMPDEST PUSH0 DUP3 DUP3 SHR SWAP1 POP SWAP3 SWAP2 POP POP JUMP JUMPDEST PUSH0 PUSH2 0x3ED PUSH0 NOT DUP5 PUSH1 0x8 MUL PUSH2 0x3D2 JUMP JUMPDEST NOT DUP1 DUP4 AND SWAP2 POP POP SWAP3 SWAP2 POP POP JUMP JUMPDEST PUSH0 PUSH2 0x405 DUP4 DUP4 PUSH2 0x3DE JUMP JUMPDEST SWAP2 POP DUP3 PUSH1 0x2 MUL DUP3 OR SWAP1 POP SWAP3 SWAP2 POP POP JUMP JUMPDEST PUSH2 0x41E DUP3 PUSH2 0x1D8 JUMP JUMPDEST PUSH8 0xFFFFFFFFFFFFFFFF DUP2 GT ISZERO PUSH2 0x437 JUMPI PUSH2 0x436 PUSH2 0x1E2 JUMP JUMPDEST JUMPDEST PUSH2 0x441 DUP3 SLOAD PUSH2 0x23C JUMP JUMPDEST PUSH2 0x44C DUP3 DUP3 DUP6 PUSH2 0x38C JUMP JUMPDEST PUSH0 PUSH1 0x20 SWAP1 POP PUSH1 0x1F DUP4 GT PUSH1 0x1 DUP2 EQ PUSH2 0x47D JUMPI PUSH0 DUP5 ISZERO PUSH2 0x46B JUMPI DUP3 DUP8 ADD MLOAD SWAP1 POP JUMPDEST PUSH2 0x475 DUP6 DUP3 PUSH2 0x3FA JUMP JUMPDEST DUP7 SSTORE POP PUSH2 0x4DC JUMP JUMPDEST PUSH1 0x1F NOT DUP5 AND PUSH2 0x48B DUP7 PUSH2 0x26C JUMP JUMPDEST PUSH0 JUMPDEST DUP3 DUP2 LT ISZERO PUSH2 0x4B2 JUMPI DUP5 DUP10 ADD MLOAD DUP3 SSTORE PUSH1 0x1 DUP3 ADD SWAP2 POP PUSH1 0x20 DUP6 ADD SWAP5 POP PUSH1 0x20 DUP2 ADD SWAP1 POP PUSH2 0x48D JUMP JUMPDEST DUP7 DUP4 LT ISZERO PUSH2 0x4CF JUMPI DUP5 DUP10 ADD MLOAD PUSH2 0x4CB PUSH1 0x1F DUP10 AND DUP3 PUSH2 0x3DE JUMP JUMPDEST DUP4 SSTORE POP JUMPDEST PUSH1 0x1 PUSH1 0x2 DUP9 MUL ADD DUP9 SSTORE POP POP POP JUMPDEST POP POP POP POP POP POP JUMP JUMPDEST PUSH0 DUP2 SWAP1 POP DUP2 PUSH0 MSTORE PUSH1 0x20 PUSH0 KECCAK256 SWAP1 POP SWAP2 SWAP1 POP JUMP JUMPDEST PUSH1 0x1F DUP3 GT ISZERO PUSH2 0x537 JUMPI PUSH2 0x508 DUP2 PUSH2 0x4E4 JUMP JUMPDEST PUSH2 0x511 DUP5 PUSH2 0x27E JUMP JUMPDEST DUP2 ADD PUSH1 0x20 DUP6 LT ISZERO PUSH2 0x520 JUMPI DUP2 SWAP1 POP JUMPDEST PUSH2 0x534 PUSH2 0x52C DUP6 PUSH2 0x27E JUMP JUMPDEST DUP4 ADD DUP3 PUSH2 0x36A JUMP JUMPDEST POP POP JUMPDEST POP POP POP JUMP JUMPDEST PUSH2 0x545 DUP3 PUSH2 0x1D8 JUMP JUMPDEST PUSH8 0xFFFFFFFFFFFFFFFF DUP2 GT ISZERO PUSH2 0x55E JUMPI PUSH2 0x55D PUSH2 0x1E2 JUMP JUMPDEST JUMPDEST PUSH2 0x568 DUP3 SLOAD PUSH2 0x23C JUMP JUMPDEST PUSH2 0x573 DUP3 DUP3 DUP6 PUSH2 0x4F6 JUMP JUMPDEST PUSH0 PUSH1 0x20 SWAP1 POP PUSH1 0x1F DUP4 GT PUSH1 0x1 DUP2 EQ PUSH2 0x5A4 JUMPI PUSH0 DUP5 ISZERO PUSH2 0x592 JUMPI DUP3 DUP8 ADD MLOAD SWAP1 POP JUMPDEST PUSH2 0x59C DUP6 DUP3 PUSH2 0x3FA JUMP JUMPDEST DUP7 SSTORE POP PUSH2 0x603 JUMP JUMPDEST PUSH1 0x1F NOT DUP5 AND PUSH2 0x5B2 DUP7 PUSH2 0x4E4 JUMP JUMPDEST PUSH0 JUMPDEST DUP3 DUP2 LT ISZERO PUSH2 0x5D9 JUMPI DUP5 DUP10 ADD MLOAD DUP3 SSTORE PUSH1 0x1 DUP3 ADD SWAP2 POP PUSH1 0x20 DUP6 ADD SWAP5 POP PUSH1 0x20 DUP2 ADD SWAP1 POP PUSH2 0x5B4 JUMP JUMPDEST DUP7 DUP4 LT ISZERO PUSH2 0x5F6 JUMPI DUP5 DUP10 ADD MLOAD PUSH2 0x5F2 PUSH1 0x1F DUP10 AND DUP3 PUSH2 0x3DE JUMP JUMPDEST DUP4 SSTORE POP JUMPDEST PUSH1 0x1 PUSH1 0x2 DUP9 MUL ADD DUP9 SSTORE POP POP POP JUMPDEST POP POP POP POP POP POP JUMP JUMPDEST PUSH2 0x61C DUP1 PUSH2 0x618 PUSH0 CODECOPY PUSH0 RETURN INVALID PUSH1 0x80 PUSH1 0x40 MSTORE CALLVALUE DUP1 ISZERO PUSH2 0xF JUMPI PUSH0 PUSH0 REVERT JUMPDEST POP PUSH1 0x4 CALLDATASIZE LT PUSH2 0x34 JUMPI PUSH0 CALLDATALOAD PUSH1 0xE0 SHR DUP1 PUSH4 0x2E9EB7C6 EQ PUSH2 0x38 JUMPI DUP1 PUSH4 0xB64E0226 EQ PUSH2 0x56 JUMPI JUMPDEST PUSH0 PUSH0 REVERT JUMPDEST PUSH2 0x40 PUSH2 0x86 JUMP JUMPDEST PUSH1 0x40 MLOAD PUSH2 0x4D SWAP2 SWAP1 PUSH2 0x47D JUMP JUMPDEST PUSH1 0x40 MLOAD DUP1 SWAP2 SUB SWAP1 RETURN JUMPDEST PUSH2 0x70 PUSH1 0x4 DUP1 CALLDATASIZE SUB DUP2 ADD SWAP1 PUSH2 0x6B SWAP2 SWAP1 PUSH2 0x4FF JUMP JUMPDEST PUSH2 0x14C JUMP JUMPDEST PUSH1 0x40 MLOAD PUSH2 0x7D SWAP2 SWAP1 PUSH2 0x47D JUMP JUMPDEST PUSH1 0x40 MLOAD DUP1 SWAP2 SUB SWAP1 RETURN JUMPDEST PUSH0 PUSH1 0x40 MLOAD DUP1 PUSH1 0x60 ADD PUSH1 0x40 MSTORE DUP1 PUSH1 0x1 PUSH1 0xFF AND DUP2 MSTORE PUSH1 0x20 ADD PUSH1 0x2 PUSH1 0xFF AND DUP2 MSTORE PUSH1 0x20 ADD PUSH1 0x3 PUSH1 0xFF AND DUP2 MSTORE POP PUSH1 0x8 SWAP1 PUSH1 0x3 PUSH2 0xBE SWAP3 SWAP2 SWAP1 PUSH2 0x354 JUMP JUMPDEST POP PUSH1 0x2 PUSH8 0xFFFFFFFFFFFFFFFF DUP2 GT ISZERO PUSH2 0xDA JUMPI PUSH2 0xD9 PUSH2 0x54A JUMP JUMPDEST JUMPDEST PUSH1 0x40 MLOAD SWAP1 DUP1 DUP3 MSTORE DUP1 PUSH1 0x20 MUL PUSH1 0x20 ADD DUP3 ADD PUSH1 0x40 MSTORE DUP1 ISZERO PUSH2 0x108 JUMPI DUP2 PUSH1 0x20 ADD PUSH1 0x20 DUP3 MUL DUP1 CALLDATASIZE DUP4 CALLDATACOPY DUP1 DUP3 ADD SWAP2 POP POP SWAP1 POP JUMPDEST POP PUSH1 0xB SWAP1 DUP1 MLOAD SWAP1 PUSH1 0x20 ADD SWAP1 PUSH2 0x11E SWAP3 SWAP2 SWAP1 PUSH2 0x399 JUMP JUMPDEST POP PUSH1 0x1 PUSH1 0xB PUSH0 DUP2 SLOAD DUP2 LT PUSH2 0x135 JUMPI PUSH2 0x134 PUSH2 0x577 JUMP JUMPDEST JUMPDEST SWAP1 PUSH0 MSTORE PUSH1 0x20 PUSH0 KECCAK256 ADD DUP2 SWAP1 SSTORE POP PUSH1 0xB DUP1 SLOAD SWAP1 POP SWAP1 POP SWAP1 JUMP JUMPDEST PUSH0 PUSH0 PUSH1 0x3 PUSH8 0xFFFFFFFFFFFFFFFF DUP2 GT ISZERO PUSH2 0x169 JUMPI PUSH2 0x168 PUSH2 0x54A JUMP JUMPDEST JUMPDEST PUSH1 0x40 MLOAD SWAP1 DUP1 DUP3 MSTORE DUP1 PUSH1 0x20 MUL PUSH1 0x20 ADD DUP3 ADD PUSH1 0x40 MSTORE DUP1 ISZERO PUSH2 0x197 JUMPI DUP2 PUSH1 0x20 ADD PUSH1 0x20 DUP3 MUL DUP1 CALLDATASIZE DUP4 CALLDATACOPY DUP1 DUP3 ADD SWAP2 POP POP SWAP1 POP JUMPDEST POP SWAP1 POP PUSH1 0x1 DUP2 PUSH0 DUP2 MLOAD DUP2 LT PUSH2 0x1AF JUMPI PUSH2 0x1AE PUSH2 0x577 JUMP JUMPDEST JUMPDEST PUSH1 0x20 MUL PUSH1 0x20 ADD ADD DUP2 DUP2 MSTORE POP POP PUSH0 DUP5 DUP5 PUSH0 SWAP1 DUP8 DUP8 SWAP1 POP SWAP3 PUSH2 0x1D1 SWAP4 SWAP3 SWAP2 SWAP1 PUSH2 0x5AC JUMP JUMPDEST DUP1 DUP1 PUSH1 0x20 MUL PUSH1 0x20 ADD PUSH1 0x40 MLOAD SWAP1 DUP2 ADD PUSH1 0x40 MSTORE DUP1 SWAP4 SWAP3 SWAP2 SWAP1 DUP2 DUP2 MSTORE PUSH1 0x20 ADD DUP4 DUP4 PUSH1 0x20 MUL DUP1 DUP3 DUP5 CALLDATACOPY PUSH0 DUP2 DUP5 ADD MSTORE PUSH1 0x1F NOT PUSH1 0x1F DUP3 ADD AND SWAP1 POP DUP1 DUP4 ADD SWAP3 POP POP POP POP POP POP POP SWAP1 POP DUP1 MLOAD POP PUSH0 DUP3 SWAP1 POP DUP1 MLOAD POP PUSH0 PUSH1 0xB DUP1 SLOAD DUP1 PUSH1 0x20 MUL PUSH1 0x20 ADD PUSH1 0x40 MLOAD SWAP1 DUP2 ADD PUSH1 0x40 MSTORE DUP1 SWAP3 SWAP2 SWAP1 DUP2 DUP2 MSTORE PUSH1 0x20 ADD DUP3 DUP1 SLOAD DUP1 ISZERO PUSH2 0x267 JUMPI PUSH1 0x20 MUL DUP3 ADD SWAP2 SWAP1 PUSH0 MSTORE PUSH1 0x20 PUSH0 KECCAK256 SWAP1 JUMPDEST DUP2 SLOAD DUP2 MSTORE PUSH1 0x20 ADD SWAP1 PUSH1 0x1 ADD SWAP1 DUP1 DUP4 GT PUSH2 0x253 JUMPI JUMPDEST POP POP POP POP POP SWAP1 POP PUSH1 0x1 DUP2 PUSH0 DUP2 MLOAD DUP2 LT PUSH2 0x283 JUMPI PUSH2 0x282 PUSH2 0x577 JUMP JUMPDEST JUMPDEST PUSH1 0x20 MUL PUSH1 0x20 ADD ADD DUP2 DUP2 MSTORE POP POP PUSH0 PUSH1 0xB SWAP1 POP PUSH1 0x1 DUP2 PUSH0 DUP2 SLOAD DUP2 LT PUSH2 0x2A9 JUMPI PUSH2 0x2A8 PUSH2 0x577 JUMP JUMPDEST JUMPDEST SWAP1 PUSH0 MSTORE PUSH1 0x20 PUSH0 KECCAK256 ADD DUP2 SWAP1 SSTORE POP DUP8 DUP8 PUSH0 SWAP1 DUP1 SWAP3 PUSH2 0x2C7 SWAP4 SWAP3 SWAP2 SWAP1 PUSH2 0x5AC JUMP JUMPDEST PUSH1 0xB SWAP2 SWAP1 PUSH2 0x2D6 SWAP3 SWAP2 SWAP1 PUSH2 0x3E4 JUMP JUMPDEST POP DUP3 PUSH1 0xB SWAP1 DUP1 MLOAD SWAP1 PUSH1 0x20 ADD SWAP1 PUSH2 0x2ED SWAP3 SWAP2 SWAP1 PUSH2 0x399 JUMP JUMPDEST POP CALLDATASIZE PUSH0 DUP10 DUP10 SWAP2 POP SWAP2 POP DUP2 DUP2 SWAP1 POP POP PUSH0 DUP11 DUP11 DUP1 DUP1 PUSH1 0x20 MUL PUSH1 0x20 ADD PUSH1 0x40 MLOAD SWAP1 DUP2 ADD PUSH1 0x40 MSTORE DUP1 SWAP4 SWAP3 SWAP2 SWAP1 DUP2 DUP2 MSTORE PUSH1 0x20 ADD DUP4 DUP4 PUSH1 0x20 MUL DUP1 DUP3 DUP5 CALLDATACOPY PUSH0 DUP2 DUP5 ADD MSTORE PUSH1 0x1F NOT PUSH1 0x1F DUP3 ADD AND SWAP1 POP DUP1 DUP4 ADD SWAP3 POP POP POP POP POP POP POP SWAP1 POP DUP1 MLOAD POP DUP6 MLOAD SWAP9 POP POP POP POP POP POP POP POP POP SWAP3 SWAP2 POP POP JUMP JUMPDEST DUP3 PUSH1 0x3 DUP2 ADD SWAP3 DUP3 ISZERO PUSH2 0x388 JUMPI SWAP2 PUSH1 0x20 MUL DUP3 ADD JUMPDEST DUP3 DUP2 GT ISZERO PUSH2 0x387 JUMPI DUP3 MLOAD DUP3 SWAP1 PUSH1 0xFF AND SWAP1 SSTORE SWAP2 PUSH1 0x20 ADD SWAP2 SWAP1 PUSH1 0x1 ADD SWAP1 PUSH2 0x367 JUMP JUMPDEST JUMPDEST POP SWAP1 POP PUSH2 0x395 SWAP2 SWAP1 PUSH2 0x42F JUMP JUMPDEST POP SWAP1 JUMP JUMPDEST DUP3 DUP1 SLOAD DUP3 DUP3 SSTORE SWAP1 PUSH0 MSTORE PUSH1 0x20 PUSH0 KECCAK256 SWAP1 DUP2 ADD SWAP3 DUP3 ISZERO PUSH2 0x3D3 JUMPI SWAP2 PUSH1 0x20 MUL DUP3 ADD JUMPDEST DUP3 DUP2 GT ISZERO PUSH2 0x3D2 JUMPI DUP3 MLOAD DUP3 SSTORE SWAP2 PUSH1 0x20 ADD SWAP2 SWAP1 PUSH1 0x1 ADD SWAP1 PUSH2 0x3B7 JUMP JUMPDEST JUMPDEST POP SWAP1 POP PUSH2 0x3E0 SWAP2 SWAP1 PUSH2 0x44A JUMP JUMPDEST POP SWAP1 JUMP JUMPDEST DUP3 DUP1 SLOAD DUP3 DUP3 SSTORE SWAP1 PUSH0 MSTORE PUSH1 0x20 PUSH0 KECCAK256 SWAP1 DUP2 ADD SWAP3 DUP3 ISZERO PUSH2 0x41E JUMPI SWAP2 PUSH1 0x20 MUL DUP3 ADD JUMPDEST DUP3 DUP2 GT ISZERO PUSH2 0x41D JUMPI DUP3 CALLDATALOAD DUP3 SSTORE SWAP2 PUSH1 0x20 ADD SWAP2 SWAP1 PUSH1 0x1 ADD SWAP1 PUSH2 0x402 JUMP JUMPDEST JUMPDEST POP SWAP1 POP PUSH2 0x42B SWAP2 SWAP1 PUSH2 0x44A JUMP JUMPDEST POP SWAP1 JUMP JUMPDEST JUMPDEST DUP1 DUP3 GT ISZERO PUSH2 0x446 JUMPI PUSH0 DUP2 PUSH0 SWAP1 SSTORE POP PUSH1 0x1 ADD PUSH2 0x430 JUMP JUMPDEST POP SWAP1 JUMP JUMPDEST JUMPDEST DUP1 DUP3 GT ISZERO PUSH2 0x461 JUMPI PUSH0 DUP2 PUSH0 SWAP1 SSTORE POP PUSH1 0x1 ADD PUSH2 0x44B JUMP JUMPDEST POP SWAP1 JUMP JUMPDEST PUSH0 DUP2 SWAP1 POP SWAP2 SWAP1 POP JUMP JUMPDEST PUSH2 0x477 DUP2 PUSH2 0x465 JUMP JUMPDEST DUP3 MSTORE POP POP JUMP JUMPDEST PUSH0 PUSH1 0x20 DUP3 ADD SWAP1 POP PUSH2 0x490 PUSH0 DUP4 ADD DUP5 PUSH2 0x46E JUMP JUMPDEST SWAP3 SWAP2 POP POP JUMP JUMPDEST PUSH0 PUSH0 REVERT JUMPDEST PUSH0 PUSH0 REVERT JUMPDEST PUSH0 PUSH0 REVERT JUMPDEST PUSH0 PUSH0 REVERT JUMPDEST PUSH0 PUSH0 REVERT JUMPDEST PUSH0 PUSH0 DUP4 PUSH1 0x1F DUP5 ADD SLT PUSH2 0x4BF JUMPI PUSH2 0x4BE PUSH2 0x49E JUMP JUMPDEST JUMPDEST DUP3 CALLDATALOAD SWAP1 POP PUSH8 0xFFFFFFFFFFFFFFFF DUP2 GT ISZERO PUSH2 0x4DC JUMPI PUSH2 0x4DB PUSH2 0x4A2 JUMP JUMPDEST JUMPDEST PUSH1 0x20 DUP4 ADD SWAP2 POP DUP4 PUSH1 0x20 DUP3 MUL DUP4 ADD GT ISZERO PUSH2 0x4F8 JUMPI PUSH2 0x4F7 PUSH2 0x4A6 JUMP JUMPDEST JUMPDEST SWAP3 POP SWAP3 SWAP1 POP JUMP JUMPDEST PUSH0 PUSH0 PUSH1 0x20 DUP4 DUP6 SUB SLT ISZERO PUSH2 0x515 JUMPI PUSH2 0x514 PUSH2 0x496 JUMP JUMPDEST JUMPDEST PUSH0 DUP4 ADD CALLDATALOAD PUSH8 0xFFFFFFFFFFFFFFFF DUP2 GT ISZERO PUSH2 0x532 JUMPI PUSH2 0x531 PUSH2 0x49A JUMP JUMPDEST JUMPDEST PUSH2 0x53E DUP6 DUP3 DUP7 ADD PUSH2 0x4AA JUMP JUMPDEST SWAP3 POP SWAP3 POP POP SWAP3 POP SWAP3 SWAP1 POP JUMP JUMPDEST PUSH32 0x4E487B7100000000000000000000000000000000000000000000000000000000 PUSH0 MSTORE PUSH1 0x41 PUSH1 0x4 MSTORE PUSH1 0x24 PUSH0 REVERT JUMPDEST PUSH32 0x4E487B7100000000000000000000000000000000000000000000000000000000 PUSH0 MSTORE PUSH1 0x32 PUSH1 0x4 MSTORE PUSH1 0x24 PUSH0 REVERT JUMPDEST PUSH0 PUSH0 REVERT JUMPDEST PUSH0 PUSH0 REVERT JUMPDEST PUSH0 PUSH0 DUP6 DUP6 GT ISZERO PUSH2 0x5BF JUMPI PUSH2 0x5BE PUSH2 0x5A4 JUMP JUMPDEST JUMPDEST DUP4 DUP7 GT ISZERO PUSH2 0x5D0 JUMPI PUSH2 0x5CF PUSH2 0x5A8 JUMP JUMPDEST JUMPDEST PUSH1 0x20 DUP6 MUL DUP4 ADD SWAP2 POP DUP5 DUP7 SUB SWAP1 POP SWAP5 POP SWAP5 SWAP3 POP POP POP JUMP INVALID LOG2 PUSH5 0x6970667358 0x22 SLT KECCAK256 0xD3 EXTCODECOPY DUPN 0x27 DUP9 0xB2 SLOAD SLOAD PUSH24 0x32F30A69D9EFD4EB45660A24952CAE83E931F245DDAB2264 PUSH20 0x6F6C634300081E00330000000000000000000000 "
		},
		"gasEstimates": {
			"creation": {
				"codeDepositCost": "312800",
				"executionCost": "infinite",
				"totalCost": "infinite"
			},
			"external": {
				"arrConSort()": "infinite",
				"arrConSort1(int256[])": "infinite"
			}
		},
		"methodIdentifiers": {
			"arrConSort()": "2e9eb7c6",
			"arrConSort1(int256[])": "b64e0226"
		}
	},
	"abi": [
		{
			"inputs": [],
			"name": "arrConSort",
			"outputs": [
				{
					"internalType": "uint256",
					"name": "",
					"type": "uint256"
				}
			],
			"stateMutability": "nonpayable",
			"type": "function"
		},
		{
			"inputs": [
				{
					"internalType": "int256[]",
					"name": "a15",
					"type": "int256[]"
				}
			],
			"name": "arrConSort1",
			"outputs": [
				{
					"internalType": "uint256",
					"name": "",
					"type": "uint256"
				}
			],
			"stateMutability": "nonpayable",
			"type": "function"
		}
	]
}